{
  "address": "0xA17B99B2817d0EdD992fE00D219DEc2b9835742d",
  "abi": [
    {
      "anonymous": false,
      "inputs": [
        {
          "indexed": false,
          "internalType": "uint256",
          "name": "depositBridgeFee",
          "type": "uint256"
        }
      ],
      "name": "DepositBridgeFeeChanged",
      "type": "event"
    },
    {
      "anonymous": false,
      "inputs": [
        {
          "indexed": false,
          "internalType": "uint256",
          "name": "depositFee",
          "type": "uint256"
        }
      ],
      "name": "DepositFeeChanged",
      "type": "event"
    },
    {
      "anonymous": false,
      "inputs": [
        {
          "indexed": false,
          "internalType": "uint8",
          "name": "version",
          "type": "uint8"
        }
      ],
      "name": "Initialized",
      "type": "event"
    },
    {
      "anonymous": false,
      "inputs": [
        {
          "indexed": true,
          "internalType": "address",
          "name": "previousOwner",
          "type": "address"
        },
        {
          "indexed": true,
          "internalType": "address",
          "name": "newOwner",
          "type": "address"
        }
      ],
      "name": "OwnershipTransferred",
      "type": "event"
    },
    {
      "anonymous": false,
      "inputs": [
        {
          "indexed": false,
          "internalType": "uint256",
          "name": "withdrawalBridgeFee",
          "type": "uint256"
        }
      ],
      "name": "WithdrawalBridgeFeeChanged",
      "type": "event"
    },
    {
      "anonymous": false,
      "inputs": [
        {
          "indexed": false,
          "internalType": "uint256",
          "name": "withdrawalFee",
          "type": "uint256"
        }
      ],
      "name": "WithdrawalFeeChanged",
      "type": "event"
    },
    {
      "inputs": [],
      "name": "PRECISION",
      "outputs": [
        {
          "internalType": "uint256",
          "name": "",
          "type": "uint256"
        }
      ],
      "stateMutability": "view",
      "type": "function"
    },
    {
      "inputs": [
        {
          "internalType": "uint256",
          "name": "_massetAmount",
          "type": "uint256"
        }
      ],
      "name": "calculateDepositBridgeFee",
      "outputs": [
        {
          "internalType": "uint256",
          "name": "",
          "type": "uint256"
        }
      ],
      "stateMutability": "view",
      "type": "function"
    },
    {
      "inputs": [
        {
          "internalType": "uint256",
          "name": "_massetAmount",
          "type": "uint256"
        }
      ],
      "name": "calculateDepositFee",
      "outputs": [
        {
          "internalType": "uint256",
          "name": "",
          "type": "uint256"
        }
      ],
      "stateMutability": "view",
      "type": "function"
    },
    {
      "inputs": [
        {
          "internalType": "uint256",
          "name": "_massetAmount",
          "type": "uint256"
        }
      ],
      "name": "calculateRedeemBridgeFee",
      "outputs": [
        {
          "internalType": "uint256",
          "name": "",
          "type": "uint256"
        }
      ],
      "stateMutability": "view",
      "type": "function"
    },
    {
      "inputs": [
        {
          "internalType": "uint256",
          "name": "_massetAmount",
          "type": "uint256"
        }
      ],
      "name": "calculateRedeemFee",
      "outputs": [
        {
          "internalType": "uint256",
          "name": "",
          "type": "uint256"
        }
      ],
      "stateMutability": "view",
      "type": "function"
    },
    {
      "inputs": [],
      "name": "getDepositBridgeFee",
      "outputs": [
        {
          "internalType": "uint256",
          "name": "",
          "type": "uint256"
        }
      ],
      "stateMutability": "view",
      "type": "function"
    },
    {
      "inputs": [],
      "name": "getDepositFee",
      "outputs": [
        {
          "internalType": "uint256",
          "name": "",
          "type": "uint256"
        }
      ],
      "stateMutability": "view",
      "type": "function"
    },
    {
      "inputs": [],
      "name": "getWithdrawalBridgeFee",
      "outputs": [
        {
          "internalType": "uint256",
          "name": "",
          "type": "uint256"
        }
      ],
      "stateMutability": "view",
      "type": "function"
    },
    {
      "inputs": [],
      "name": "getWithdrawalFee",
      "outputs": [
        {
          "internalType": "uint256",
          "name": "",
          "type": "uint256"
        }
      ],
      "stateMutability": "view",
      "type": "function"
    },
    {
      "inputs": [
        {
          "internalType": "uint256",
          "name": "_depositFee",
          "type": "uint256"
        },
        {
          "internalType": "uint256",
          "name": "_depositBridgeFee",
          "type": "uint256"
        },
        {
          "internalType": "uint256",
          "name": "_withdrawalFee",
          "type": "uint256"
        },
        {
          "internalType": "uint256",
          "name": "_withdrawalBridgeFee",
          "type": "uint256"
        }
      ],
      "name": "initialize",
      "outputs": [],
      "stateMutability": "nonpayable",
      "type": "function"
    },
    {
      "inputs": [],
      "name": "owner",
      "outputs": [
        {
          "internalType": "address",
          "name": "",
          "type": "address"
        }
      ],
      "stateMutability": "view",
      "type": "function"
    },
    {
      "inputs": [],
      "name": "renounceOwnership",
      "outputs": [],
      "stateMutability": "nonpayable",
      "type": "function"
    },
    {
      "inputs": [
        {
          "internalType": "uint256",
          "name": "_amount",
          "type": "uint256"
        }
      ],
      "name": "setDepositBridgeFee",
      "outputs": [],
      "stateMutability": "nonpayable",
      "type": "function"
    },
    {
      "inputs": [
        {
          "internalType": "uint256",
          "name": "_amount",
          "type": "uint256"
        }
      ],
      "name": "setDepositFee",
      "outputs": [],
      "stateMutability": "nonpayable",
      "type": "function"
    },
    {
      "inputs": [
        {
          "internalType": "uint256",
          "name": "_amount",
          "type": "uint256"
        }
      ],
      "name": "setWithdrawalBridgeFee",
      "outputs": [],
      "stateMutability": "nonpayable",
      "type": "function"
    },
    {
      "inputs": [
        {
          "internalType": "uint256",
          "name": "_amount",
          "type": "uint256"
        }
      ],
      "name": "setWithdrawalFee",
      "outputs": [],
      "stateMutability": "nonpayable",
      "type": "function"
    },
    {
      "inputs": [
        {
          "internalType": "address",
          "name": "newOwner",
          "type": "address"
        }
      ],
      "name": "transferOwnership",
      "outputs": [],
      "stateMutability": "nonpayable",
      "type": "function"
    }
  ],
  "transactionHash": "0xc561800feb116b7576a9db87c900e050282e5b645d9cac5ed64f262435bc9adc",
  "args": [],
  "numDeployments": 1,
  "solcInputHash": "fb7c766d504e9a507c1682a56f98c8c8",
  "bytecode": "0x608060405234801561001057600080fd5b5061082b806100206000396000f3fe608060405234801561001057600080fd5b506004361061010b5760003560e01c80637f0c6010116100a2578063c54edda011610071578063c54edda0146101ed578063c8066c41146101f5578063d8e159f8146101fd578063ee87674314610205578063f2fde38b1461021857600080fd5b80637f0c6010146101a35780638da5cb5b146101b6578063aaf5eb68146101d1578063ac1e5025146101da57600080fd5b806350bc5042116100de57806350bc50421461016257806360a2da441461017557806364c4fbba14610188578063715018a61461019b57600080fd5b80630de705b514610110578063247d284b146101275780633ee7ab841461013a578063490ae2101461014d575b600080fd5b6065545b6040519081526020015b60405180910390f35b61011461013536600461070e565b61022b565b61011461014836600461070e565b61023f565b61016061015b36600461070e565b61024d565b005b61016061017036600461070e565b6102bc565b610160610183366004610727565b61031b565b61011461019636600461070e565b610454565b610160610462565b6101146101b136600461070e565b610476565b6033546040516001600160a01b03909116815260200161011e565b61011461271081565b6101606101e836600461070e565b610484565b606854610114565b606654610114565b606754610114565b61016061021336600461070e565b6104e3565b610160610226366004610759565b610542565b6000610239826065546105bb565b92915050565b6000610239826068546105bb565b6102556105da565b6127108111156102805760405162461bcd60e51b815260040161027790610782565b60405180910390fd5b60658190556040518181527f2a6f1084651542f3142c70f4c43c096d016a8b517c063660b146268f646ea43a906020015b60405180910390a150565b6102c46105da565b6127108111156102e65760405162461bcd60e51b815260040161027790610782565b60668190556040518181527f670d967e6a887c84c79a646c76703d9237c70d6f94df6e50ab680b527c264d17906020016102b1565b600054610100900460ff161580801561033b5750600054600160ff909116105b806103555750303b158015610355575060005460ff166001145b6103b85760405162461bcd60e51b815260206004820152602e60248201527f496e697469616c697a61626c653a20636f6e747261637420697320616c72656160448201526d191e481a5b9a5d1a585b1a5e995960921b6064820152608401610277565b6000805460ff1916600117905580156103db576000805461ff0019166101001790555b6103e3610634565b6103ec8561024d565b6103f5846102bc565b6103fe83610484565b610407826104e3565b801561044d576000805461ff0019169055604051600181527f7f26b83ff96e1f2b6a682f133852f6798a09c465da95921460cefb38474024989060200160405180910390a15b5050505050565b6000610239826066546105bb565b61046a6105da565b61047460006106a4565b565b6000610239826067546105bb565b61048c6105da565b6127108111156104ae5760405162461bcd60e51b815260040161027790610782565b60678190556040518181527ffc1353e6b18ce07b5a979c8edf77a87455939a17a9eebbb084dcde5bfb3b19ac906020016102b1565b6104eb6105da565b61271081111561050d5760405162461bcd60e51b815260040161027790610782565b60688190556040518181527f6885e5ccab44b224d100539b69688eb383fb3ccf89de3819cc5d128063e389c9906020016102b1565b61054a6105da565b6001600160a01b0381166105af5760405162461bcd60e51b815260206004820152602660248201527f4f776e61626c653a206e6577206f776e657220697320746865207a65726f206160448201526564647265737360d01b6064820152608401610277565b6105b8816106a4565b50565b60006105d36127106105cd85856106f6565b90610702565b9392505050565b6033546001600160a01b031633146104745760405162461bcd60e51b815260206004820181905260248201527f4f776e61626c653a2063616c6c6572206973206e6f7420746865206f776e65726044820152606401610277565b600054610100900460ff1661069f5760405162461bcd60e51b815260206004820152602b60248201527f496e697469616c697a61626c653a20636f6e7472616374206973206e6f74206960448201526a6e697469616c697a696e6760a81b6064820152608401610277565b610474335b603380546001600160a01b038381166001600160a01b0319831681179093556040519116919082907f8be0079c531659141344cd1fd0a4f28419497f9722a3daafe3b4186f6b6457e090600090a35050565b60006105d382846107ae565b60006105d382846107d3565b60006020828403121561072057600080fd5b5035919050565b6000806000806080858703121561073d57600080fd5b5050823594602084013594506040840135936060013592509050565b60006020828403121561076b57600080fd5b81356001600160a01b03811681146105d357600080fd5b6020808252601290820152711a5b9d985b1a590819995948185b5bdd5b9d60721b604082015260600190565b808202811582820484141761023957634e487b7160e01b600052601160045260246000fd5b6000826107f057634e487b7160e01b600052601260045260246000fd5b50049056fea2646970667358221220a59339f4e13f92c09060802ebbb56b81ee341c260a9c1e3c76a5c2cecfd070ee64736f6c63430008110033",
  "devdoc": {
    "details": "Contract is responsible for fees calculations.",
    "events": {
      "DepositBridgeFeeChanged(uint256)": {
        "details": "Emitted when deposit bridge fee has changed.",
        "params": {
          "depositBridgeFee": "Amount of the fee."
        }
      },
      "DepositFeeChanged(uint256)": {
        "details": "Emitted when deposit fee has changed.",
        "params": {
          "depositFee": "Amount of the fee."
        }
      },
      "WithdrawalBridgeFeeChanged(uint256)": {
        "details": "Emitted when withdrawal bridge fee has changed.",
        "params": {
          "withdrawalBridgeFee": "Amount of the fee."
        }
      },
      "WithdrawalFeeChanged(uint256)": {
        "details": "Emitted when withdrawal fee has changed.",
        "params": {
          "withdrawalFee": "Amount of the fee."
        }
      }
    },
    "kind": "dev",
    "methods": {
      "calculateDepositBridgeFee(uint256)": {
        "details": "Calculate and return fee for deposit through bridge.",
        "params": {
          "_massetAmount": "Amount of masset to deposit."
        },
        "returns": {
          "_0": "fee           Calculated fee amount."
        }
      },
      "calculateDepositFee(uint256)": {
        "details": "Calculate and return deposit fee amount based on massetAmount.",
        "params": {
          "_massetAmount": "Amount of masset to deposit."
        },
        "returns": {
          "_0": "fee           Calculated fee amount."
        }
      },
      "calculateRedeemBridgeFee(uint256)": {
        "details": "Calculate and return fee for redeem through bridge.",
        "params": {
          "_massetAmount": "Amount of masset."
        },
        "returns": {
          "_0": "fee           Calculated fee amount."
        }
      },
      "calculateRedeemFee(uint256)": {
        "details": "Calculate and return redeem fee amount based on massetAmount.",
        "params": {
          "_massetAmount": "Amount of masset."
        },
        "returns": {
          "_0": "fee           Calculated fee amount."
        }
      },
      "initialize(uint256,uint256,uint256,uint256)": {
        "details": "Contract initializer.",
        "params": {
          "_depositBridgeFee": "Amount of deposit through bridge fee in promils.",
          "_depositFee": "Amount of deposit fee in promils.",
          "_withdrawalBridgeFee": "Amount of redeem through bridge fee in promils.",
          "_withdrawalFee": "Amount of redeem fee in promils."
        }
      },
      "owner()": {
        "details": "Returns the address of the current owner."
      },
      "renounceOwnership()": {
        "details": "Leaves the contract without owner. It will not be possible to call `onlyOwner` functions anymore. Can only be called by the current owner. NOTE: Renouncing ownership will leave the contract without an owner, thereby removing any functionality that is only available to the owner."
      },
      "transferOwnership(address)": {
        "details": "Transfers ownership of the contract to a new account (`newOwner`). Can only be called by the current owner."
      }
    },
    "stateVariables": {
      "PRECISION": {
        "details": "Factor of fees."
      }
    },
    "title": "FeesManager",
    "version": 1
  },
  "userdoc": {
    "kind": "user",
    "methods": {
      "PRECISION()": {
        "notice": "a value of 10000 means that 223 equals 2.23% and 10000 equals 100%"
      }
    },
    "version": 1
  },
  "storageLayout": {
    "storage": [
      {
        "astId": 527,
        "contract": "contracts/masset/FeesManager.sol:FeesManager",
        "label": "_initialized",
        "offset": 0,
        "slot": "0",
        "type": "t_uint8"
      },
      {
        "astId": 530,
        "contract": "contracts/masset/FeesManager.sol:FeesManager",
        "label": "_initializing",
        "offset": 1,
        "slot": "0",
        "type": "t_bool"
      },
      {
        "astId": 1087,
        "contract": "contracts/masset/FeesManager.sol:FeesManager",
        "label": "__gap",
        "offset": 0,
        "slot": "1",
        "type": "t_array(t_uint256)50_storage"
      },
      {
        "astId": 10,
        "contract": "contracts/masset/FeesManager.sol:FeesManager",
        "label": "_owner",
        "offset": 0,
        "slot": "51",
        "type": "t_address"
      },
      {
        "astId": 130,
        "contract": "contracts/masset/FeesManager.sol:FeesManager",
        "label": "__gap",
        "offset": 0,
        "slot": "52",
        "type": "t_array(t_uint256)49_storage"
      },
      {
        "astId": 7378,
        "contract": "contracts/masset/FeesManager.sol:FeesManager",
        "label": "depositFee",
        "offset": 0,
        "slot": "101",
        "type": "t_uint256"
      },
      {
        "astId": 7380,
        "contract": "contracts/masset/FeesManager.sol:FeesManager",
        "label": "depositBridgeFee",
        "offset": 0,
        "slot": "102",
        "type": "t_uint256"
      },
      {
        "astId": 7382,
        "contract": "contracts/masset/FeesManager.sol:FeesManager",
        "label": "withdrawalFee",
        "offset": 0,
        "slot": "103",
        "type": "t_uint256"
      },
      {
        "astId": 7384,
        "contract": "contracts/masset/FeesManager.sol:FeesManager",
        "label": "withdrawalBridgeFee",
        "offset": 0,
        "slot": "104",
        "type": "t_uint256"
      }
    ],
    "types": {
      "t_address": {
        "encoding": "inplace",
        "label": "address",
        "numberOfBytes": "20"
      },
      "t_array(t_uint256)49_storage": {
        "base": "t_uint256",
        "encoding": "inplace",
        "label": "uint256[49]",
        "numberOfBytes": "1568"
      },
      "t_array(t_uint256)50_storage": {
        "base": "t_uint256",
        "encoding": "inplace",
        "label": "uint256[50]",
        "numberOfBytes": "1600"
      },
      "t_bool": {
        "encoding": "inplace",
        "label": "bool",
        "numberOfBytes": "1"
      },
      "t_uint256": {
        "encoding": "inplace",
        "label": "uint256",
        "numberOfBytes": "32"
      },
      "t_uint8": {
        "encoding": "inplace",
        "label": "uint8",
        "numberOfBytes": "1"
      }
    }
  }
}