{
  "address": "0x42EFe42Bf1dDFB68930408afA42911C3E02A3303",
  "abi": [
    {
      "anonymous": false,
      "inputs": [
        {
          "indexed": true,
          "internalType": "address",
          "name": "previousOwner",
          "type": "address"
        },
        {
          "indexed": true,
          "internalType": "address",
          "name": "newOwner",
          "type": "address"
        }
      ],
      "name": "OwnershipTransferred",
      "type": "event"
    },
    {
      "constant": false,
      "inputs": [],
      "name": "initialize",
      "outputs": [],
      "payable": false,
      "stateMutability": "nonpayable",
      "type": "function"
    },
    {
      "constant": true,
      "inputs": [],
      "name": "isOwner",
      "outputs": [
        {
          "internalType": "bool",
          "name": "",
          "type": "bool"
        }
      ],
      "payable": false,
      "stateMutability": "view",
      "type": "function"
    },
    {
      "constant": true,
      "inputs": [],
      "name": "owner",
      "outputs": [
        {
          "internalType": "address",
          "name": "",
          "type": "address"
        }
      ],
      "payable": false,
      "stateMutability": "view",
      "type": "function"
    },
    {
      "constant": false,
      "inputs": [],
      "name": "renounceOwnership",
      "outputs": [],
      "payable": false,
      "stateMutability": "nonpayable",
      "type": "function"
    },
    {
      "constant": false,
      "inputs": [
        {
          "internalType": "address",
          "name": "newOwner",
          "type": "address"
        }
      ],
      "name": "transferOwnership",
      "outputs": [],
      "payable": false,
      "stateMutability": "nonpayable",
      "type": "function"
    },
    {
      "constant": false,
      "inputs": [
        {
          "internalType": "address",
          "name": "_token",
          "type": "address"
        },
        {
          "internalType": "uint256",
          "name": "_amount",
          "type": "uint256"
        },
        {
          "internalType": "address",
          "name": "_recipient",
          "type": "address"
        }
      ],
      "name": "withdraw",
      "outputs": [],
      "payable": false,
      "stateMutability": "nonpayable",
      "type": "function"
    }
  ],
  "transactionHash": "0xcf50c1dc781a91ff8764ed2e4bde2c2c669a816e0fc0f99de3a59ea8e2852092",
  "args": [],
  "numDeployments": 1,
  "solcInputHash": "1a3e2dbf67d3233bbb3b7921dfe5a273",
  "bytecode": "0x608060405261067b806100136000396000f3fe608060405234801561001057600080fd5b50600436106100625760003560e01c806369328dec14610067578063715018a61461009f5780638129fc1c146100a75780638da5cb5b146100af5780638f32d59b146100d3578063f2fde38b146100ef575b600080fd5b61009d6004803603606081101561007d57600080fd5b506001600160a01b03813581169160208101359160409091013516610115565b005b61009d61013c565b61009d61018e565b6100b7610198565b604080516001600160a01b039092168252519081900360200190f35b6100db6101a7565b604080519115158252519081900360200190f35b61009d6004803603602081101561010557600080fd5b50356001600160a01b03166101cb565b61011d6101df565b6101376001600160a01b038416828463ffffffff61022216565b505050565b6101446101df565b600080546040516001600160a01b03909116907f8be0079c531659141344cd1fd0a4f28419497f9722a3daafe3b4186f6b6457e0908390a3600080546001600160a01b0319169055565b610196610274565b565b6000546001600160a01b031690565b600080546001600160a01b03166101bc61031e565b6001600160a01b031614905090565b6101d36101df565b6101dc81610322565b50565b6101e76101a7565b6101965760405162461bcd60e51b815260040180806020018281038252602d81526020018061061a602d913960400191505060405180910390fd5b604080516001600160a01b038416602482015260448082018490528251808303909101815260649091019091526020810180516001600160e01b031663a9059cbb60e01b1790526101379084906103c2565b6000546001600160a01b0316156102c8576040805162461bcd60e51b8152602060048201526013602482015272185b1c9958591e481a5b9a5d1a585b1a5e9959606a1b604482015290519081900360640190fd5b60006102d261031e565b600080546001600160a01b0319166001600160a01b0383169081178255604051929350917f8be0079c531659141344cd1fd0a4f28419497f9722a3daafe3b4186f6b6457e0908290a350565b3390565b6001600160a01b0381166103675760405162461bcd60e51b81526004018080602001828103825260338152602001806105bd6033913960400191505060405180910390fd5b600080546040516001600160a01b03808516939216917f8be0079c531659141344cd1fd0a4f28419497f9722a3daafe3b4186f6b6457e091a3600080546001600160a01b0319166001600160a01b0392909216919091179055565b6103d4826001600160a01b0316610580565b610425576040805162461bcd60e51b815260206004820152601f60248201527f5361666545524332303a2063616c6c20746f206e6f6e2d636f6e747261637400604482015290519081900360640190fd5b60006060836001600160a01b0316836040518082805190602001908083835b602083106104635780518252601f199092019160209182019101610444565b6001836020036101000a0380198251168184511680821785525050505050509050019150506000604051808303816000865af19150503d80600081146104c5576040519150601f19603f3d011682016040523d82523d6000602084013e6104ca565b606091505b509150915081610521576040805162461bcd60e51b815260206004820181905260248201527f5361666545524332303a206c6f772d6c6576656c2063616c6c206661696c6564604482015290519081900360640190fd5b80511561057a5780806020019051602081101561053d57600080fd5b505161057a5760405162461bcd60e51b815260040180806020018281038252602a8152602001806105f0602a913960400191505060405180910390fd5b50505050565b6000813f7fc5d2460186f7233c927e7db2dcc703c0e500b653ca82273b7bfad8045d85a4708181148015906105b457508115155b94935050505056fe496e697469616c697a61626c654f776e61626c653a206e6577206f776e657220697320746865207a65726f20616464726573735361666545524332303a204552433230206f7065726174696f6e20646964206e6f742073756363656564496e697469616c697a61626c654f776e61626c653a2063616c6c6572206973206e6f7420746865206f776e6572a265627a7a72315820b0b9d39f60d463aa8dbc5c3500813994b199c9b1fd5e0e0709d8c93bae384cff64736f6c63430005110032",
  "devdoc": {
    "details": "Contract is used to store fees.",
    "methods": {
      "isOwner()": {
        "details": "Returns true if the caller is the current owner."
      },
      "owner()": {
        "details": "Returns the address of the current owner."
      },
      "renounceOwnership()": {
        "details": "Leaves the contract without owner. It will not be possible to call `onlyOwner` functions anymore. Can only be called by the current owner.     * NOTE: Renouncing ownership will leave the contract without an owner, thereby removing any functionality that is only available to the owner."
      },
      "transferOwnership(address)": {
        "details": "Transfers ownership of the contract to a new account (`newOwner`). Can only be called by the current owner."
      },
      "withdraw(address,uint256,address)": {
        "details": "Withdraw collected fees.",
        "params": {
          "_amount": "Amount to withdraw.",
          "_recipient": "Recipient of withdrawn tokens.",
          "_token": "Address of token to withdraw."
        }
      }
    },
    "title": "FeesVault"
  },
  "userdoc": {
    "methods": {}
  },
  "storageLayout": {
    "storage": [
      {
        "astId": 14369,
        "contract": "contracts/vault/FeesVault.sol:FeesVault",
        "label": "_owner",
        "offset": 0,
        "slot": "0",
        "type": "t_address"
      }
    ],
    "types": {
      "t_address": {
        "encoding": "inplace",
        "label": "address",
        "numberOfBytes": "20"
      }
    }
  }
}