{
  "address": "0x38aBfCE29F6FBaC3ff76156b794C2a5beC9571a1",
  "abi": [
    {
      "anonymous": false,
      "inputs": [
        {
          "indexed": true,
          "internalType": "address",
          "name": "minter",
          "type": "address"
        },
        {
          "indexed": true,
          "internalType": "address",
          "name": "recipient",
          "type": "address"
        },
        {
          "indexed": false,
          "internalType": "uint256",
          "name": "massetQuantity",
          "type": "uint256"
        },
        {
          "indexed": false,
          "internalType": "address",
          "name": "bAsset",
          "type": "address"
        },
        {
          "indexed": false,
          "internalType": "uint256",
          "name": "bassetQuantity",
          "type": "uint256"
        }
      ],
      "name": "Minted",
      "type": "event"
    },
    {
      "anonymous": false,
      "inputs": [
        {
          "indexed": true,
          "internalType": "address",
          "name": "previousOwner",
          "type": "address"
        },
        {
          "indexed": true,
          "internalType": "address",
          "name": "newOwner",
          "type": "address"
        }
      ],
      "name": "OwnershipTransferred",
      "type": "event"
    },
    {
      "anonymous": false,
      "inputs": [
        {
          "indexed": true,
          "internalType": "address",
          "name": "redeemer",
          "type": "address"
        },
        {
          "indexed": true,
          "internalType": "address",
          "name": "recipient",
          "type": "address"
        },
        {
          "indexed": false,
          "internalType": "uint256",
          "name": "massetQuantity",
          "type": "uint256"
        },
        {
          "indexed": false,
          "internalType": "address",
          "name": "bAsset",
          "type": "address"
        },
        {
          "indexed": false,
          "internalType": "uint256",
          "name": "bassetQuantity",
          "type": "uint256"
        }
      ],
      "name": "Redeemed",
      "type": "event"
    },
    {
      "anonymous": false,
      "inputs": [
        {
          "indexed": true,
          "internalType": "address",
          "name": "sender",
          "type": "address"
        },
        {
          "indexed": false,
          "internalType": "uint256",
          "name": "orderAmount",
          "type": "uint256"
        },
        {
          "indexed": false,
          "internalType": "address",
          "name": "tokenAddress",
          "type": "address"
        },
        {
          "indexed": false,
          "internalType": "bytes",
          "name": "userData",
          "type": "bytes"
        }
      ],
      "name": "onTokensMintedCalled",
      "type": "event"
    },
    {
      "anonymous": false,
      "inputs": [
        {
          "indexed": false,
          "internalType": "address",
          "name": "operator",
          "type": "address"
        },
        {
          "indexed": false,
          "internalType": "address",
          "name": "from",
          "type": "address"
        },
        {
          "indexed": false,
          "internalType": "address",
          "name": "to",
          "type": "address"
        },
        {
          "indexed": false,
          "internalType": "uint256",
          "name": "amount",
          "type": "uint256"
        },
        {
          "indexed": false,
          "internalType": "bytes",
          "name": "userData",
          "type": "bytes"
        },
        {
          "indexed": false,
          "internalType": "bytes",
          "name": "operatorData",
          "type": "bytes"
        }
      ],
      "name": "onTokensReceivedCalled",
      "type": "event"
    },
    {
      "constant": true,
      "inputs": [],
      "name": "getBasketManager",
      "outputs": [
        {
          "internalType": "address",
          "name": "",
          "type": "address"
        }
      ],
      "payable": false,
      "stateMutability": "view",
      "type": "function"
    },
    {
      "constant": true,
      "inputs": [],
      "name": "getToken",
      "outputs": [
        {
          "internalType": "address",
          "name": "",
          "type": "address"
        }
      ],
      "payable": false,
      "stateMutability": "view",
      "type": "function"
    },
    {
      "constant": true,
      "inputs": [],
      "name": "getVersion",
      "outputs": [
        {
          "internalType": "string",
          "name": "",
          "type": "string"
        }
      ],
      "payable": false,
      "stateMutability": "view",
      "type": "function"
    },
    {
      "constant": false,
      "inputs": [
        {
          "internalType": "address",
          "name": "_basketManagerAddress",
          "type": "address"
        },
        {
          "internalType": "address",
          "name": "_tokenAddress",
          "type": "address"
        },
        {
          "internalType": "bool",
          "name": "_registerAsERC777RecipientFlag",
          "type": "bool"
        }
      ],
      "name": "initialize",
      "outputs": [],
      "payable": false,
      "stateMutability": "nonpayable",
      "type": "function"
    },
    {
      "constant": true,
      "inputs": [],
      "name": "isOwner",
      "outputs": [
        {
          "internalType": "bool",
          "name": "",
          "type": "bool"
        }
      ],
      "payable": false,
      "stateMutability": "view",
      "type": "function"
    },
    {
      "constant": false,
      "inputs": [
        {
          "internalType": "address",
          "name": "_bAsset",
          "type": "address"
        },
        {
          "internalType": "uint256",
          "name": "_bAssetQuantity",
          "type": "uint256"
        }
      ],
      "name": "mint",
      "outputs": [
        {
          "internalType": "uint256",
          "name": "massetMinted",
          "type": "uint256"
        }
      ],
      "payable": false,
      "stateMutability": "nonpayable",
      "type": "function"
    },
    {
      "constant": false,
      "inputs": [
        {
          "internalType": "address",
          "name": "_bAsset",
          "type": "address"
        },
        {
          "internalType": "uint256",
          "name": "_bAssetQuantity",
          "type": "uint256"
        },
        {
          "internalType": "address",
          "name": "_recipient",
          "type": "address"
        }
      ],
      "name": "mintTo",
      "outputs": [
        {
          "internalType": "uint256",
          "name": "massetMinted",
          "type": "uint256"
        }
      ],
      "payable": false,
      "stateMutability": "nonpayable",
      "type": "function"
    },
    {
      "constant": false,
      "inputs": [
        {
          "internalType": "uint256",
          "name": "_orderAmount",
          "type": "uint256"
        },
        {
          "internalType": "address",
          "name": "_tokenAddress",
          "type": "address"
        },
        {
          "internalType": "bytes",
          "name": "_userData",
          "type": "bytes"
        }
      ],
      "name": "onTokensMinted",
      "outputs": [],
      "payable": false,
      "stateMutability": "nonpayable",
      "type": "function"
    },
    {
      "constant": true,
      "inputs": [],
      "name": "owner",
      "outputs": [
        {
          "internalType": "address",
          "name": "",
          "type": "address"
        }
      ],
      "payable": false,
      "stateMutability": "view",
      "type": "function"
    },
    {
      "constant": false,
      "inputs": [
        {
          "internalType": "address",
          "name": "_bAsset",
          "type": "address"
        },
        {
          "internalType": "uint256",
          "name": "_massetQuantity",
          "type": "uint256"
        }
      ],
      "name": "redeem",
      "outputs": [
        {
          "internalType": "uint256",
          "name": "massetRedeemed",
          "type": "uint256"
        }
      ],
      "payable": false,
      "stateMutability": "nonpayable",
      "type": "function"
    },
    {
      "constant": false,
      "inputs": [
        {
          "internalType": "address",
          "name": "_bAsset",
          "type": "address"
        },
        {
          "internalType": "uint256",
          "name": "_massetQuantity",
          "type": "uint256"
        },
        {
          "internalType": "address",
          "name": "_recipient",
          "type": "address"
        }
      ],
      "name": "redeemTo",
      "outputs": [
        {
          "internalType": "uint256",
          "name": "massetRedeemed",
          "type": "uint256"
        }
      ],
      "payable": false,
      "stateMutability": "nonpayable",
      "type": "function"
    },
    {
      "constant": false,
      "inputs": [
        {
          "internalType": "address",
          "name": "_basset",
          "type": "address"
        },
        {
          "internalType": "uint256",
          "name": "_massetQuantity",
          "type": "uint256"
        },
        {
          "internalType": "address",
          "name": "_recipient",
          "type": "address"
        },
        {
          "internalType": "address",
          "name": "_bridgeAddress",
          "type": "address"
        }
      ],
      "name": "redeemToBridge",
      "outputs": [
        {
          "internalType": "uint256",
          "name": "massetRedeemed",
          "type": "uint256"
        }
      ],
      "payable": false,
      "stateMutability": "nonpayable",
      "type": "function"
    },
    {
      "constant": false,
      "inputs": [
        {
          "internalType": "address",
          "name": "_basset",
          "type": "address"
        },
        {
          "internalType": "uint256",
          "name": "_massetQuantity",
          "type": "uint256"
        },
        {
          "internalType": "address",
          "name": "_recipient",
          "type": "address"
        }
      ],
      "name": "redeemToBridge",
      "outputs": [
        {
          "internalType": "uint256",
          "name": "massetRedeemed",
          "type": "uint256"
        }
      ],
      "payable": false,
      "stateMutability": "nonpayable",
      "type": "function"
    },
    {
      "constant": false,
      "inputs": [],
      "name": "renounceOwnership",
      "outputs": [],
      "payable": false,
      "stateMutability": "nonpayable",
      "type": "function"
    },
    {
      "constant": false,
      "inputs": [
        {
          "internalType": "address",
          "name": "_operator",
          "type": "address"
        },
        {
          "internalType": "address",
          "name": "_from",
          "type": "address"
        },
        {
          "internalType": "address",
          "name": "_to",
          "type": "address"
        },
        {
          "internalType": "uint256",
          "name": "_amount",
          "type": "uint256"
        },
        {
          "internalType": "bytes",
          "name": "_userData",
          "type": "bytes"
        },
        {
          "internalType": "bytes",
          "name": "_operatorData",
          "type": "bytes"
        }
      ],
      "name": "tokensReceived",
      "outputs": [],
      "payable": false,
      "stateMutability": "nonpayable",
      "type": "function"
    },
    {
      "constant": false,
      "inputs": [
        {
          "internalType": "address",
          "name": "newOwner",
          "type": "address"
        }
      ],
      "name": "transferOwnership",
      "outputs": [],
      "payable": false,
      "stateMutability": "nonpayable",
      "type": "function"
    }
  ],
  "transactionHash": "0x8ba621bbb7117d438a2a56a888e95cb7290063fd9de7eda263adae98d85741da",
  "args": [],
  "numDeployments": 1,
  "solcInputHash": "1a3e2dbf67d3233bbb3b7921dfe5a273",
  "bytecode": "0x6080604052611ffb806100136000396000f3fe608060405234801561001057600080fd5b50600436106100ff5760003560e01c80638da5cb5b11610097578063e4bbb5a811610066578063e4bbb5a8146101f0578063eeea5d3614610203578063f2fde38b1461020b578063fb2c92231461021e576100ff565b80638da5cb5b146101ad5780638f32d59b146101b5578063960015a2146101ca578063c4a58637146101dd576100ff565b806321df0da7116100d357806321df0da71461016a57806340c10f191461017f578063438b1b4b14610192578063715018a6146101a5576100ff565b806223de29146101045780630b8aad07146101195780630d8e6e2c146101425780631e9a695014610157575b600080fd5b610117610112366004611575565b610231565b005b61012c610127366004611700565b610280565b6040516101399190611ec7565b60405180910390f35b61014a6102ac565b6040516101399190611da6565b61012c610165366004611683565b610340565b610172610367565b6040516101399190611c62565b61012c61018d366004611683565b610376565b61012c6101a03660046116bd565b610390565b6101176103b6565b610172610408565b6101bd610417565b6040516101399190611d98565b61012c6101d83660046116bd565b61043b565b6101176101eb36600461179d565b61045a565b6101176101fe366004611636565b61083f565b610172610947565b610117610219366004611539565b610956565b61012c61022c3660046116bd565b61096a565b7fa693010e29186da1ce1e8a9fdf6619831117e41c17cbb8927787b66b35627be6888888888888888860405161026e989796959493929190611cb3565b60405180910390a15050505050505050565b600061028a610986565b600260018190555061029f85858560016109aa565b6001805595945050505050565b60028054604080516020601f60001961010060018716150201909416859004938401819004810282018101909252828152606093909290918301828280156103355780601f1061030a57610100808354040283529160200191610335565b820191906000526020600020905b81548152906001019060200180831161031857829003601f168201915b505050505090505b90565b600061034a610986565b600260015561035c83833360006109aa565b600180559392505050565b6004546001600160a01b031690565b6000610380610986565b600260015561035c838333610ed2565b600061039a610986565b60026001556103aa848484610ed2565b60018055949350505050565b6103be611219565b600080546040516001600160a01b03909116907f8be0079c531659141344cd1fd0a4f28419497f9722a3daafe3b4186f6b6457e0908390a3600080546001600160a01b0319169055565b6000546001600160a01b031690565b600080546001600160a01b031661042c61123d565b6001600160a01b031614905090565b6000610445610986565b60026001819055506103aa84848460016109aa565b610462610986565b600260015560405133907fc00ef8ea79854d25cda161b949dfe54da4ddf385ef9cf6faaab7c6f9e8d9b3ac9061049f908790879087908790611ed5565b60405180910390a2600084116104d05760405162461bcd60e51b81526004016104c790611e07565b60405180910390fd5b600061051183838080601f01602080910402602001604051908101604052809392919081815260200183838082843760009201919091525061124192505050565b60035460405163f44c7c8f60e01b815291925085916000916001600160a01b03169063f44c7c8f90610547908590600401611c62565b60206040518083038186803b15801561055f57600080fd5b505afa158015610573573d6000803e3d6000fd5b505050506040513d601f19601f820116820180604052506105979190810190611557565b9050336001600160a01b038216146105c15760405162461bcd60e51b81526004016104c790611e37565b60035460405163d80f5a8760e01b81526001600160a01b039091169063d80f5a87906105f1908590600401611c62565b60206040518083038186803b15801561060957600080fd5b505afa15801561061d573d6000803e3d6000fd5b505050506040513d601f19601f820116820180604052506106419190810190611761565b61065d5760405162461bcd60e51b81526004016104c790611de7565b6003546040516354f8177f60e11b81526001600160a01b039091169063a9f02efe9061068f9085908b90600401611d46565b60206040518083038186803b1580156106a757600080fd5b505afa1580156106bb573d6000803e3d6000fd5b505050506040513d601f19601f820116820180604052506106df9190810190611761565b6106fb5760405162461bcd60e51b81526004016104c790611e27565b600354604051631af327bd60e01b81526000916001600160a01b031690631af327bd9061072e9086908c90600401611d46565b60206040518083038186803b15801561074657600080fd5b505afa15801561075a573d6000803e3d6000fd5b505050506040513d601f19601f8201168201806040525061077e919081019061177f565b600480546040516340c10f1960e01b81529293506001600160a01b0316916340c10f19916107b0918891869101611d46565b600060405180830381600087803b1580156107ca57600080fd5b505af11580156107de573d6000803e3d6000fd5b50505050836001600160a01b0316336001600160a01b03167f30873c596f54a2e2e09894670d7e1a48b2433c00204f81fbedf557353c36e7c783868c60405161082993929190611f03565b60405180910390a3505060018055505050505050565b6003546001600160a01b031615801561086157506004546001600160a01b0316155b61087d5760405162461bcd60e51b81526004016104c790611e57565b6001600160a01b0383166108a35760405162461bcd60e51b81526004016104c790611e17565b6001600160a01b0382166108c95760405162461bcd60e51b81526004016104c790611e67565b6108d1611286565b6108d9611305565b600380546001600160a01b038086166001600160a01b031992831617909255600480549285169290911691909117905580156109175761091761130b565b604080518082019091526003808252620312e360ec1b602090920191825261094191600291611416565b50505050565b6003546001600160a01b031690565b61095e611219565b61096781611395565b50565b6000610974610986565b60026001556103aa84848460006109aa565b6001546001146109a85760405162461bcd60e51b81526004016104c790611ea7565b565b60006001600160a01b0383166109d25760405162461bcd60e51b81526004016104c790611dc7565b600084116109f25760405162461bcd60e51b81526004016104c790611e87565b60035460405163d80f5a8760e01b81526001600160a01b039091169063d80f5a8790610a22908890600401611c62565b60206040518083038186803b158015610a3a57600080fd5b505afa158015610a4e573d6000803e3d6000fd5b505050506040513d601f19601f82011682018060405250610a729190810190611761565b610a8e5760405162461bcd60e51b81526004016104c790611de7565b600354604051635ac9946160e01b81526000916001600160a01b031690635ac9946190610ac19089908990600401611d46565b60206040518083038186803b158015610ad957600080fd5b505afa158015610aed573d6000803e3d6000fd5b505050506040513d601f19601f82011682018060405250610b11919081019061177f565b60035460405163c7bbc86560e01b81529192506001600160a01b03169063c7bbc86590610b449089908590600401611d46565b60206040518083038186803b158015610b5c57600080fd5b505afa158015610b70573d6000803e3d6000fd5b505050506040513d601f19601f82011682018060405250610b949190810190611761565b610bb05760405162461bcd60e51b81526004016104c790611db7565b8215610d915760035460405163f44c7c8f60e01b81526000916001600160a01b03169063f44c7c8f90610be7908a90600401611c62565b60206040518083038186803b158015610bff57600080fd5b505afa158015610c13573d6000803e3d6000fd5b505050506040513d601f19601f82011682018060405250610c379190810190611557565b90506001600160a01b038116610c5f5760405162461bcd60e51b81526004016104c790611e47565b60405163095ea7b360e01b81526001600160a01b0388169063095ea7b390610c8d9084908690600401611d46565b602060405180830381600087803b158015610ca757600080fd5b505af1158015610cbb573d6000803e3d6000fd5b505050506040513d601f19601f82011682018060405250610cdf9190810190611761565b50604080516020810182526000815290516303f2e9b160e51b81526001600160a01b03831691637e5d362091610d1d918b9187918b91600401611d54565b602060405180830381600087803b158015610d3757600080fd5b505af1158015610d4b573d6000803e3d6000fd5b505050506040513d601f19601f82011682018060405250610d6f9190810190611761565b610d8b5760405162461bcd60e51b81526004016104c790611e77565b50610e13565b60405163a9059cbb60e01b81526001600160a01b0387169063a9059cbb90610dbf9087908590600401611d46565b602060405180830381600087803b158015610dd957600080fd5b505af1158015610ded573d6000803e3d6000fd5b505050506040513d601f19601f82011682018060405250610e119190810190611761565b505b60048054604051632770a7eb60e21b81526001600160a01b0390911691639dc29fac91610e449133918a9101611c98565b600060405180830381600087803b158015610e5e57600080fd5b505af1158015610e72573d6000803e3d6000fd5b50505050836001600160a01b0316336001600160a01b03167fa0dde38365e7863fcda1e12536206bc5ab0b7074a66a441e866145cf3d07fc24878985604051610ebd93929190611f03565b60405180910390a3849150505b949350505050565b60006001600160a01b038216610efa5760405162461bcd60e51b81526004016104c790611dc7565b60008311610f1a5760405162461bcd60e51b81526004016104c790611df7565b60035460405163d80f5a8760e01b81526001600160a01b039091169063d80f5a8790610f4a908790600401611c62565b60206040518083038186803b158015610f6257600080fd5b505afa158015610f76573d6000803e3d6000fd5b505050506040513d601f19601f82011682018060405250610f9a9190810190611761565b610fb65760405162461bcd60e51b81526004016104c790611de7565b6003546040516354f8177f60e11b81526001600160a01b039091169063a9f02efe90610fe89087908790600401611d46565b60206040518083038186803b15801561100057600080fd5b505afa158015611014573d6000803e3d6000fd5b505050506040513d601f19601f820116820180604052506110389190810190611761565b6110545760405162461bcd60e51b81526004016104c790611db7565b600354604051631af327bd60e01b81526000916001600160a01b031690631af327bd906110879088908890600401611d46565b60206040518083038186803b15801561109f57600080fd5b505afa1580156110b3573d6000803e3d6000fd5b505050506040513d601f19601f820116820180604052506110d7919081019061177f565b6040516323b872dd60e01b81529091506001600160a01b038616906323b872dd9061110a90339030908990600401611c70565b602060405180830381600087803b15801561112457600080fd5b505af1158015611138573d6000803e3d6000fd5b505050506040513d601f19601f8201168201806040525061115c9190810190611761565b50600480546040516340c10f1960e01b81526001600160a01b03909116916340c10f199161118e918791869101611d46565b600060405180830381600087803b1580156111a857600080fd5b505af11580156111bc573d6000803e3d6000fd5b50505050826001600160a01b0316336001600160a01b03167f30873c596f54a2e2e09894670d7e1a48b2433c00204f81fbedf557353c36e7c783888860405161120793929190611f03565b60405180910390a390505b9392505050565b611221610417565b6109a85760405162461bcd60e51b81526004016104c790611eb7565b3390565b600080828060200190516112589190810190611557565b90506001600160a01b0381166112805760405162461bcd60e51b81526004016104c790611e97565b92915050565b6000546001600160a01b0316156112af5760405162461bcd60e51b81526004016104c790611e57565b60006112b961123d565b600080546001600160a01b0319166001600160a01b0383169081178255604051929350917f8be0079c531659141344cd1fd0a4f28419497f9722a3daafe3b4186f6b6457e0908290a350565b60018055565b604051731820a4b7618bde71dce8cdc73aab6c95905fad249081906329965a1d90309061133790611c57565b6040519081900381206001600160e01b031960e085901b16825261136092913090600401611d1e565b600060405180830381600087803b15801561137a57600080fd5b505af115801561138e573d6000803e3d6000fd5b5050505050565b6001600160a01b0381166113bb5760405162461bcd60e51b81526004016104c790611dd7565b600080546040516001600160a01b03808516939216917f8be0079c531659141344cd1fd0a4f28419497f9722a3daafe3b4186f6b6457e091a3600080546001600160a01b0319166001600160a01b0392909216919091179055565b828054600181600116156101000203166002900490600052602060002090601f016020900481019282601f1061145757805160ff1916838001178555611484565b82800160010185558215611484579182015b82811115611484578251825591602001919060010190611469565b50611490929150611494565b5090565b61033d91905b80821115611490576000815560010161149a565b803561128081611f92565b805161128081611f92565b803561128081611fa6565b805161128081611fa6565b60008083601f8401126114ec57600080fd5b50813567ffffffffffffffff81111561150457600080fd5b60208301915083600182028301111561151c57600080fd5b9250929050565b803561128081611faf565b805161128081611faf565b60006020828403121561154b57600080fd5b6000610eca84846114ae565b60006020828403121561156957600080fd5b6000610eca84846114b9565b60008060008060008060008060c0898b03121561159157600080fd5b600061159d8b8b6114ae565b98505060206115ae8b828c016114ae565b97505060406115bf8b828c016114ae565b96505060606115d08b828c01611523565b955050608089013567ffffffffffffffff8111156115ed57600080fd5b6115f98b828c016114da565b945094505060a089013567ffffffffffffffff81111561161857600080fd5b6116248b828c016114da565b92509250509295985092959890939650565b60008060006060848603121561164b57600080fd5b600061165786866114ae565b9350506020611668868287016114ae565b9250506040611679868287016114c4565b9150509250925092565b6000806040838503121561169657600080fd5b60006116a285856114ae565b92505060206116b385828601611523565b9150509250929050565b6000806000606084860312156116d257600080fd5b60006116de86866114ae565b93505060206116ef86828701611523565b9250506040611679868287016114ae565b6000806000806080858703121561171657600080fd5b600061172287876114ae565b945050602061173387828801611523565b9350506040611744878288016114ae565b9250506060611755878288016114ae565b91505092959194509250565b60006020828403121561177357600080fd5b6000610eca84846114cf565b60006020828403121561179157600080fd5b6000610eca848461152e565b600080600080606085870312156117b357600080fd5b60006117bf8787611523565b94505060206117d0878288016114ae565b935050604085013567ffffffffffffffff8111156117ed57600080fd5b6117f9878288016114da565b95989497509550505050565b61180e81611f3f565b82525050565b61180e81611f23565b61180e81611f2e565b61180e8161033d565b600061183b8385611f15565b9350611848838584611f50565b61185183611f88565b9093019392505050565b600061186682611f11565b6118708185611f15565b9350611880818560208601611f5c565b61185181611f88565b6000611896600e83611f15565b6d1a5b9d985b1a590818985cdad95d60921b815260200192915050565b60006118c0601983611f15565b7f6d75737420626520612076616c696420726563697069656e7400000000000000815260200192915050565b60006118f9603383611f15565b7f496e697469616c697a61626c654f776e61626c653a206e6577206f776e657220815272697320746865207a65726f206164647265737360681b602082015260400192915050565b600061194e600e83611f15565b6d1a5b9d985b1a590818985cdcd95d60921b815260200192915050565b6000611978601683611f15565b7507175616e74697479206d757374206e6f7420626520360541b815260200192915050565b60006119aa601283611f15565b710616d6f756e74206d757374206265203e20360741b815260200192915050565b60006119d8601683611f15565b7534b73b30b634b2103130b9b5b2ba1036b0b730b3b2b960511b815260200192915050565b6000611a0a601583611f15565b746261736b6574206f7574206f662062616c616e636560581b815260200192915050565b6000611a3b601483611f15565b731bdb9b1e48189c9a5919d9481b585e4818d85b1b60621b815260200192915050565b6000611a6b600e83611f15565b6d696e76616c69642062726964676560901b815260200192915050565b6000611a95601383611f15565b72185b1c9958591e481a5b9a5d1a585b1a5e9959606a1b815260200192915050565b6000611ac4600d83611f15565b6c34b73b30b634b2103a37b5b2b760991b815260200192915050565b6000611aed601583611f15565b7418d85b1b081d1bc8189c9a5919d94819985a5b1959605a1b815260200192915050565b6000611b1e601583611f1e565b74115490cdcdcdd51bdad95b9cd49958da5c1a595b9d605a1b815260150192915050565b6000611b4f602683611f15565b7f6d6173736574207175616e74697479206d75737420626520677265617465722081526507468616e20360d41b602082015260400192915050565b6000611b97602383611f15565b7f436f6e7665727465723a204572726f72206465636f64696e672065787472614481526261746160e81b602082015260400192915050565b6000611bdc601f83611f15565b7f5265656e7472616e637947756172643a207265656e7472616e742063616c6c00815260200192915050565b6000611c15602d83611f15565b7f496e697469616c697a61626c654f776e61626c653a2063616c6c65722069732081526c3737ba103a34329037bbb732b960991b602082015260400192915050565b600061128082611b11565b602081016112808284611814565b60608101611c7e8286611805565b611c8b6020830185611814565b610eca6040830184611826565b60408101611ca68285611805565b6112126020830184611826565b60c08101611cc1828b611814565b611cce602083018a611814565b611cdb6040830189611814565b611ce86060830188611826565b8181036080830152611cfb81868861182f565b905081810360a0830152611d1081848661182f565b9a9950505050505050505050565b60608101611d2c8286611814565b611d396020830185611826565b610eca6040830184611814565b60408101611ca68285611814565b60808101611d628287611814565b611d6f6020830186611826565b611d7c6040830185611814565b8181036060830152611d8e818461185b565b9695505050505050565b60208101611280828461181d565b60208082528101611212818461185b565b6020808252810161128081611889565b60208082528101611280816118b3565b60208082528101611280816118ec565b6020808252810161128081611941565b602080825281016112808161196b565b602080825281016112808161199d565b60208082528101611280816119cb565b60208082528101611280816119fd565b6020808252810161128081611a2e565b6020808252810161128081611a5e565b6020808252810161128081611a88565b6020808252810161128081611ab7565b6020808252810161128081611ae0565b6020808252810161128081611b42565b6020808252810161128081611b8a565b6020808252810161128081611bcf565b6020808252810161128081611c08565b602081016112808284611826565b60608101611ee38287611826565b611ef06020830186611814565b8181036040830152611d8e81848661182f565b60608101611c7e8286611826565b5190565b90815260200190565b919050565b600061128082611f33565b151590565b6001600160a01b031690565b600061128082600061128082611f23565b82818337506000910152565b60005b83811015611f77578181015183820152602001611f5f565b838111156109415750506000910152565b601f01601f191690565b611f9b81611f23565b811461096757600080fd5b611f9b81611f2e565b611f9b8161033d56fea365627a7a723158202bc3d08f66291676ee00070aaaba0d8add711405f66af14480a7ed5bb04bd6276c6578706572696d656e74616cf564736f6c63430005110040",
  "devdoc": {
    "methods": {
      "isOwner()": {
        "details": "Returns true if the caller is the current owner."
      },
      "mint(address,uint256)": {
        "details": "Mint a single bAsset, at a 1:1 ratio with the bAsset. This contract     must have approval to spend the senders bAsset",
        "params": {
          "_bAsset": "Address of the bAsset to mint",
          "_bAssetQuantity": "Quantity in bAsset units"
        },
        "return": "massetMinted   Number of newly minted mAssets"
      },
      "mintTo(address,uint256,address)": {
        "details": "Mint a single bAsset, at a 1:1 ratio with the bAsset. This contract     must have approval to spend the senders bAsset",
        "params": {
          "_bAsset": "Address of the bAsset to mint",
          "_bAssetQuantity": "Quantity in bAsset units",
          "_recipient": "receipient of the newly minted mAsset tokens"
        },
        "return": "massetMinted   Number of newly minted mAssets"
      },
      "onTokensMinted(uint256,address,bytes)": {
        "details": "This is called by the bridge to let us know the user has sent tokens through it and     into the masset.",
        "params": {
          "_orderAmount": "Units of the masset to redeem",
          "_tokenAddress": "Address of the bAsset to redeem",
          "_userData": "Address of the final recipient as ABI encoded bytes"
        }
      },
      "owner()": {
        "details": "Returns the address of the current owner."
      },
      "redeem(address,uint256)": {
        "details": "Credits the sender with a certain quantity of selected bAsset, in exchange for burning the     relative mAsset quantity from the sender. Sender also incurs a small mAsset fee, if any.",
        "params": {
          "_bAsset": "Address of the bAsset to redeem",
          "_massetQuantity": "Units of the masset to redeem"
        },
        "return": "massetMinted     Relative number of mAsset units burned to pay for the bAssets"
      },
      "redeemTo(address,uint256,address)": {
        "details": "Credits a recipient with a certain quantity of selected bAsset, in exchange for burning the     relative Masset quantity from the sender. Sender also incurs a small fee, if any.",
        "params": {
          "_bAsset": "Address of the bAsset to redeem",
          "_massetQuantity": "Units of the masset to redeem",
          "_recipient": "Address to credit with withdrawn bAssets"
        },
        "return": "massetMinted     Relative number of mAsset units burned to pay for the bAssets"
      },
      "redeemToBridge(address,uint256,address)": {
        "details": "Credits a recipient with a certain quantity of selected bAsset, in exchange for burning the     relative Masset quantity from the sender. Sender also incurs a small fee, if any.     This function is designed to also call the bridge in order to have the basset tokens sent to     another blockchain.",
        "params": {
          "_basset": "Address of the bAsset to redeem",
          "_massetQuantity": "Units of the masset to redeem",
          "_recipient": "Address to credit with withdrawn bAssets"
        },
        "return": "massetMinted     Relative number of mAsset units burned to pay for the bAssets"
      },
      "redeemToBridge(address,uint256,address,address)": {
        "details": "Credits a recipient with a certain quantity of selected bAsset, in exchange for burning the     relative Masset quantity from the sender. Sender also incurs a small fee, if any.     This function is designed to also call the bridge in order to have the basset tokens sent to     another blockchain.",
        "params": {
          "_basset": "Address of the bAsset to redeem",
          "_bridgeAddress": "This is ignored and is left here for backward compatibility with the FE",
          "_massetQuantity": "Units of the masset to redeem",
          "_recipient": "Address to credit with withdrawn bAssets"
        },
        "return": "massetMinted     Relative number of mAsset units burned to pay for the bAssets"
      },
      "renounceOwnership()": {
        "details": "Leaves the contract without owner. It will not be possible to call `onlyOwner` functions anymore. Can only be called by the current owner.     * NOTE: Renouncing ownership will leave the contract without an owner, thereby removing any functionality that is only available to the owner."
      },
      "transferOwnership(address)": {
        "details": "Transfers ownership of the contract to a new account (`newOwner`). Can only be called by the current owner."
      }
    }
  },
  "userdoc": {
    "methods": {}
  },
  "storageLayout": {
    "storage": [
      {
        "astId": 14369,
        "contract": "contracts/masset/versions/Masset.sol:Masset",
        "label": "_owner",
        "offset": 0,
        "slot": "0",
        "type": "t_address"
      },
      {
        "astId": 14500,
        "contract": "contracts/masset/versions/Masset.sol:Masset",
        "label": "_notEntered",
        "offset": 0,
        "slot": "1",
        "type": "t_uint256"
      },
      {
        "astId": 17543,
        "contract": "contracts/masset/versions/Masset.sol:Masset",
        "label": "version",
        "offset": 0,
        "slot": "2",
        "type": "t_string_storage"
      },
      {
        "astId": 17545,
        "contract": "contracts/masset/versions/Masset.sol:Masset",
        "label": "basketManager",
        "offset": 0,
        "slot": "3",
        "type": "t_contract(BasketManager)17464"
      },
      {
        "astId": 17547,
        "contract": "contracts/masset/versions/Masset.sol:Masset",
        "label": "token",
        "offset": 0,
        "slot": "4",
        "type": "t_contract(Token)17158"
      }
    ],
    "types": {
      "t_address": {
        "encoding": "inplace",
        "label": "address",
        "numberOfBytes": "20"
      },
      "t_contract(BasketManager)17464": {
        "encoding": "inplace",
        "label": "contract BasketManager",
        "numberOfBytes": "20"
      },
      "t_contract(Token)17158": {
        "encoding": "inplace",
        "label": "contract Token",
        "numberOfBytes": "20"
      },
      "t_string_storage": {
        "encoding": "bytes",
        "label": "string",
        "numberOfBytes": "32"
      },
      "t_uint256": {
        "encoding": "inplace",
        "label": "uint256",
        "numberOfBytes": "32"
      }
    }
  }
}