{
  "address": "0x0F004Fd9e9e1f884975908137F5494C3cA1D9914",
  "abi": [
    {
      "anonymous": false,
      "inputs": [
        {
          "indexed": false,
          "internalType": "address",
          "name": "previousAdmin",
          "type": "address"
        },
        {
          "indexed": false,
          "internalType": "address",
          "name": "newAdmin",
          "type": "address"
        }
      ],
      "name": "AdminChanged",
      "type": "event"
    },
    {
      "anonymous": false,
      "inputs": [
        {
          "indexed": true,
          "internalType": "address",
          "name": "beacon",
          "type": "address"
        }
      ],
      "name": "BeaconUpgraded",
      "type": "event"
    },
    {
      "anonymous": false,
      "inputs": [
        {
          "indexed": false,
          "internalType": "uint8",
          "name": "version",
          "type": "uint8"
        }
      ],
      "name": "Initialized",
      "type": "event"
    },
    {
      "anonymous": false,
      "inputs": [
        {
          "indexed": true,
          "internalType": "address",
          "name": "minter",
          "type": "address"
        },
        {
          "indexed": true,
          "internalType": "address",
          "name": "recipient",
          "type": "address"
        },
        {
          "indexed": false,
          "internalType": "uint256",
          "name": "massetQuantity",
          "type": "uint256"
        },
        {
          "indexed": false,
          "internalType": "address",
          "name": "bAsset",
          "type": "address"
        },
        {
          "indexed": false,
          "internalType": "uint256",
          "name": "bassetQuantity",
          "type": "uint256"
        }
      ],
      "name": "Minted",
      "type": "event"
    },
    {
      "anonymous": false,
      "inputs": [
        {
          "indexed": true,
          "internalType": "address",
          "name": "previousOwner",
          "type": "address"
        },
        {
          "indexed": true,
          "internalType": "address",
          "name": "newOwner",
          "type": "address"
        }
      ],
      "name": "OwnershipTransferred",
      "type": "event"
    },
    {
      "anonymous": false,
      "inputs": [
        {
          "indexed": true,
          "internalType": "address",
          "name": "redeemer",
          "type": "address"
        },
        {
          "indexed": true,
          "internalType": "address",
          "name": "recipient",
          "type": "address"
        },
        {
          "indexed": false,
          "internalType": "uint256",
          "name": "massetQuantity",
          "type": "uint256"
        },
        {
          "indexed": false,
          "internalType": "address",
          "name": "bAsset",
          "type": "address"
        },
        {
          "indexed": false,
          "internalType": "uint256",
          "name": "bassetQuantity",
          "type": "uint256"
        }
      ],
      "name": "Redeemed",
      "type": "event"
    },
    {
      "anonymous": false,
      "inputs": [
        {
          "indexed": true,
          "internalType": "address",
          "name": "implementation",
          "type": "address"
        }
      ],
      "name": "Upgraded",
      "type": "event"
    },
    {
      "anonymous": false,
      "inputs": [
        {
          "indexed": true,
          "internalType": "address",
          "name": "sender",
          "type": "address"
        },
        {
          "indexed": false,
          "internalType": "uint256",
          "name": "orderAmount",
          "type": "uint256"
        },
        {
          "indexed": false,
          "internalType": "address",
          "name": "tokenAddress",
          "type": "address"
        },
        {
          "indexed": false,
          "internalType": "bytes",
          "name": "userData",
          "type": "bytes"
        }
      ],
      "name": "onTokensMintedCalled",
      "type": "event"
    },
    {
      "anonymous": false,
      "inputs": [
        {
          "indexed": false,
          "internalType": "address",
          "name": "operator",
          "type": "address"
        },
        {
          "indexed": false,
          "internalType": "address",
          "name": "from",
          "type": "address"
        },
        {
          "indexed": false,
          "internalType": "address",
          "name": "to",
          "type": "address"
        },
        {
          "indexed": false,
          "internalType": "uint256",
          "name": "amount",
          "type": "uint256"
        },
        {
          "indexed": false,
          "internalType": "bytes",
          "name": "userData",
          "type": "bytes"
        },
        {
          "indexed": false,
          "internalType": "bytes",
          "name": "operatorData",
          "type": "bytes"
        }
      ],
      "name": "onTokensReceivedCalled",
      "type": "event"
    },
    {
      "inputs": [],
      "name": "getBasketManager",
      "outputs": [
        {
          "internalType": "address",
          "name": "",
          "type": "address"
        }
      ],
      "stateMutability": "view",
      "type": "function"
    },
    {
      "inputs": [],
      "name": "getFeesManager",
      "outputs": [
        {
          "internalType": "address",
          "name": "",
          "type": "address"
        }
      ],
      "stateMutability": "view",
      "type": "function"
    },
    {
      "inputs": [],
      "name": "getFeesVault",
      "outputs": [
        {
          "internalType": "address",
          "name": "",
          "type": "address"
        }
      ],
      "stateMutability": "view",
      "type": "function"
    },
    {
      "inputs": [],
      "name": "getProxyImplementation",
      "outputs": [
        {
          "internalType": "address",
          "name": "",
          "type": "address"
        }
      ],
      "stateMutability": "view",
      "type": "function"
    },
    {
      "inputs": [],
      "name": "getToken",
      "outputs": [
        {
          "internalType": "address",
          "name": "",
          "type": "address"
        }
      ],
      "stateMutability": "view",
      "type": "function"
    },
    {
      "inputs": [],
      "name": "getVersion",
      "outputs": [
        {
          "internalType": "string",
          "name": "",
          "type": "string"
        }
      ],
      "stateMutability": "view",
      "type": "function"
    },
    {
      "inputs": [
        {
          "internalType": "address",
          "name": "_basketManagerAddress",
          "type": "address"
        },
        {
          "internalType": "address",
          "name": "_tokenAddress",
          "type": "address"
        },
        {
          "internalType": "bool",
          "name": "_registerAsERC777RecipientFlag",
          "type": "bool"
        }
      ],
      "name": "initialize",
      "outputs": [],
      "stateMutability": "nonpayable",
      "type": "function"
    },
    {
      "inputs": [
        {
          "internalType": "address",
          "name": "_bAsset",
          "type": "address"
        },
        {
          "internalType": "uint256",
          "name": "_bAssetQuantity",
          "type": "uint256"
        }
      ],
      "name": "mint",
      "outputs": [
        {
          "internalType": "uint256",
          "name": "massetMinted",
          "type": "uint256"
        }
      ],
      "stateMutability": "nonpayable",
      "type": "function"
    },
    {
      "inputs": [
        {
          "internalType": "address",
          "name": "_bAsset",
          "type": "address"
        },
        {
          "internalType": "uint256",
          "name": "_bAssetQuantity",
          "type": "uint256"
        },
        {
          "internalType": "address",
          "name": "_recipient",
          "type": "address"
        }
      ],
      "name": "mintTo",
      "outputs": [
        {
          "internalType": "uint256",
          "name": "massetMinted",
          "type": "uint256"
        }
      ],
      "stateMutability": "nonpayable",
      "type": "function"
    },
    {
      "inputs": [
        {
          "internalType": "uint256",
          "name": "_orderAmount",
          "type": "uint256"
        },
        {
          "internalType": "address",
          "name": "_tokenAddress",
          "type": "address"
        },
        {
          "internalType": "bytes",
          "name": "_userData",
          "type": "bytes"
        }
      ],
      "name": "onTokensMinted",
      "outputs": [],
      "stateMutability": "nonpayable",
      "type": "function"
    },
    {
      "inputs": [],
      "name": "owner",
      "outputs": [
        {
          "internalType": "address",
          "name": "",
          "type": "address"
        }
      ],
      "stateMutability": "view",
      "type": "function"
    },
    {
      "inputs": [
        {
          "internalType": "address",
          "name": "_bAsset",
          "type": "address"
        },
        {
          "internalType": "uint256",
          "name": "_massetQuantity",
          "type": "uint256"
        }
      ],
      "name": "redeem",
      "outputs": [
        {
          "internalType": "uint256",
          "name": "massetRedeemed",
          "type": "uint256"
        }
      ],
      "stateMutability": "nonpayable",
      "type": "function"
    },
    {
      "inputs": [
        {
          "internalType": "address",
          "name": "_basset",
          "type": "address"
        },
        {
          "internalType": "uint256",
          "name": "_massetQuantity",
          "type": "uint256"
        },
        {
          "internalType": "address",
          "name": "_recipient",
          "type": "address"
        }
      ],
      "name": "redeemByBridge",
      "outputs": [
        {
          "internalType": "uint256",
          "name": "massetRedeemed",
          "type": "uint256"
        }
      ],
      "stateMutability": "nonpayable",
      "type": "function"
    },
    {
      "inputs": [
        {
          "internalType": "address",
          "name": "_bAsset",
          "type": "address"
        },
        {
          "internalType": "uint256",
          "name": "_massetQuantity",
          "type": "uint256"
        },
        {
          "internalType": "address",
          "name": "_recipient",
          "type": "address"
        }
      ],
      "name": "redeemTo",
      "outputs": [
        {
          "internalType": "uint256",
          "name": "massetRedeemed",
          "type": "uint256"
        }
      ],
      "stateMutability": "nonpayable",
      "type": "function"
    },
    {
      "inputs": [
        {
          "internalType": "address",
          "name": "_basset",
          "type": "address"
        },
        {
          "internalType": "uint256",
          "name": "_massetQuantity",
          "type": "uint256"
        },
        {
          "internalType": "address",
          "name": "_recipient",
          "type": "address"
        },
        {
          "internalType": "address",
          "name": "_bridgeAddress",
          "type": "address"
        }
      ],
      "name": "redeemToBridge",
      "outputs": [
        {
          "internalType": "uint256",
          "name": "massetRedeemed",
          "type": "uint256"
        }
      ],
      "stateMutability": "nonpayable",
      "type": "function"
    },
    {
      "inputs": [
        {
          "internalType": "address",
          "name": "_basset",
          "type": "address"
        },
        {
          "internalType": "uint256",
          "name": "_massetQuantity",
          "type": "uint256"
        },
        {
          "internalType": "address",
          "name": "_recipient",
          "type": "address"
        }
      ],
      "name": "redeemToBridge",
      "outputs": [
        {
          "internalType": "uint256",
          "name": "massetRedeemed",
          "type": "uint256"
        }
      ],
      "stateMutability": "nonpayable",
      "type": "function"
    },
    {
      "inputs": [],
      "name": "renounceOwnership",
      "outputs": [],
      "stateMutability": "nonpayable",
      "type": "function"
    },
    {
      "inputs": [
        {
          "internalType": "address",
          "name": "_operator",
          "type": "address"
        },
        {
          "internalType": "address",
          "name": "_from",
          "type": "address"
        },
        {
          "internalType": "address",
          "name": "_to",
          "type": "address"
        },
        {
          "internalType": "uint256",
          "name": "_amount",
          "type": "uint256"
        },
        {
          "internalType": "bytes",
          "name": "_userData",
          "type": "bytes"
        },
        {
          "internalType": "bytes",
          "name": "_operatorData",
          "type": "bytes"
        }
      ],
      "name": "tokensReceived",
      "outputs": [],
      "stateMutability": "nonpayable",
      "type": "function"
    },
    {
      "inputs": [
        {
          "internalType": "address",
          "name": "newOwner",
          "type": "address"
        }
      ],
      "name": "transferOwnership",
      "outputs": [],
      "stateMutability": "nonpayable",
      "type": "function"
    },
    {
      "inputs": [
        {
          "internalType": "address",
          "name": "_basketManagerAddress",
          "type": "address"
        },
        {
          "internalType": "address",
          "name": "_tokenAddress",
          "type": "address"
        },
        {
          "internalType": "address",
          "name": "_feesVaultAddress",
          "type": "address"
        },
        {
          "internalType": "address",
          "name": "_feesManagerAddress",
          "type": "address"
        }
      ],
      "name": "upgradeToV3",
      "outputs": [],
      "stateMutability": "nonpayable",
      "type": "function"
    }
  ],
  "transactionHash": "0xf1805a0aab7eb90ff1151821fa710680055cae0949e6448deb888416fcc74274",
  "args": [],
  "numDeployments": 1,
  "solcInputHash": "0ef1e7487507fa2f0ac4f347497542ae",
  "bytecode": "0x608060405234801561001057600080fd5b50612819806100206000396000f3fe608060405234801561001057600080fd5b506004361061012b5760003560e01c806390e4b720116100ad578063d99c5c5711610071578063d99c5c571461025c578063e4bbb5a81461026d578063eeea5d3614610280578063f2fde38b14610291578063fb2c9223146102a457600080fd5b806390e4b7201461020a578063960015a214610212578063b73b668814610225578063c4a5863714610238578063c762819b1461024b57600080fd5b806340c10f19116100f457806340c10f19146101b8578063438b1b4b146101cb5780635337c03a146101de578063715018a6146101f15780638da5cb5b146101f957600080fd5b806223de29146101305780630b8aad07146101455780630d8e6e2c1461016b5780631e9a69501461018057806321df0da714610193575b600080fd5b61014361013e366004612061565b6102b7565b005b610158610153366004612112565b610306565b6040519081526020015b60405180910390f35b610173610332565b60405161016291906121b5565b61015861018e3660046121c8565b6103c4565b60cb546001600160a01b03165b6040516001600160a01b039091168152602001610162565b6101586101c63660046121c8565b6103ee565b6101586101d93660046121f4565b610403565b6101436101ec366004612236565b61042b565b610143610708565b6033546001600160a01b03166101a0565b6101a061071c565b6101586102203660046121f4565b610754565b6101586102333660046121f4565b61076c565b610143610246366004612277565b6108a2565b60cd546001600160a01b03166101a0565b60cc546001600160a01b03166101a0565b61014361027b3660046122e1565b610cd0565b60ca546001600160a01b03166101a0565b61014361029f366004612321565b610f4a565b6101586102b23660046121f4565b610fc3565b7fa693010e29186da1ce1e8a9fdf6619831117e41c17cbb8927787b66b35627be688888888888888886040516102f4989796959493929190612367565b60405180910390a15050505050505050565b6000610310610fdb565b61031e858585600180611034565b905061032a6001606555565b949350505050565b606060c98054610341906123c5565b80601f016020809104026020016040519081016040528092919081815260200182805461036d906123c5565b80156103ba5780601f1061038f576101008083540402835291602001916103ba565b820191906000526020600020905b81548152906001019060200180831161039d57829003601f168201915b5050505050905090565b60006103ce610fdb565b6103dc838333600080611034565b90506103e86001606555565b92915050565b60006103f8610fdb565b6103dc8383336115a5565b600061040d610fdb565b6104188484846115a5565b90506104246001606555565b9392505050565b60408051808201825260038152620312e360ec1b602090910152517fe6bbd6277e1bf288eed5e8d1780f9a50b239e86b153736bceebccf4ea79d90b3906104749060c9906123ff565b604051809103902014806104d6575060408051808201825260038152620322e360ec1b602090910152517f88f72b566ae0c96f6fffac4bc8ac74909f61512ac0c06a8124d5ed420d306f90906104cc9060c9906123ff565b6040518091039020145b61051b5760405162461bcd60e51b815260206004820152601160248201527077726f6e672076657273696f6e2028312960781b60448201526064015b60405180910390fd5b604051806040016040528060038152602001620332e360ec1b81525080519060200120846001600160a01b0316630d8e6e2c6040518163ffffffff1660e01b8152600401600060405180830381865afa15801561057c573d6000803e3d6000fd5b505050506040513d6000823e601f3d908101601f191682016040526105a4919081019061248b565b80519060200120146105ec5760405162461bcd60e51b815260206004820152601160248201527077726f6e672076657273696f6e2028322960781b6044820152606401610512565b6001600160a01b03821661063a5760405162461bcd60e51b8152602060048201526015602482015274696e76616c6964207661756c74206164647265737360581b6044820152606401610512565b6001600160a01b0381166106905760405162461bcd60e51b815260206004820152601c60248201527f696e76616c69642066656573206d616e616765722061646472657373000000006044820152606401610512565b60cc80546001600160a01b038085166001600160a01b03199283161790925560cd805484841690831617905560ca805487841690831617905560cb8054928616929091169190911790556040805180820190915260038152620332e360ec1b602082015260c990610701908261257b565b5050505050565b6107106118d9565b61071a6000611933565b565b600061074f7f360894a13ba1a3210667c828492db98dca3e2076cc3735a920a3ca505d382bbc546001600160a01b031690565b905090565b600061075e610fdb565b610418848484600180611034565b6000610776610fdb565b60ca5460405163f44c7c8f60e01b81526001600160a01b038681166004830152600092169063f44c7c8f90602401602060405180830381865afa1580156107c1573d6000803e3d6000fd5b505050506040513d601f19601f820116820180604052508101906107e5919061263b565b90506001600160a01b03811661082e5760405162461bcd60e51b815260206004820152600e60248201526d696e76616c69642062726964676560901b6044820152606401610512565b6001600160a01b03811633146108865760405162461bcd60e51b815260206004820152601860248201527f6d7573742062652063616c6c65642062792062726964676500000000000000006044820152606401610512565b61089585858560016000611034565b9150506104246001606555565b6108aa610fdb565b336001600160a01b03167fc00ef8ea79854d25cda161b949dfe54da4ddf385ef9cf6faaab7c6f9e8d9b3ac858585856040516108e99493929190612658565b60405180910390a2600084116109365760405162461bcd60e51b81526020600482015260126024820152710616d6f756e74206d757374206265203e20360741b6044820152606401610512565b600061097783838080601f01602080910402602001604051908101604052809392919081815260200183838082843760009201919091525061198592505050565b60ca5460405163f44c7c8f60e01b81526001600160a01b0380881660048301529293508692600092169063f44c7c8f90602401602060405180830381865afa1580156109c7573d6000803e3d6000fd5b505050506040513d601f19601f820116820180604052508101906109eb919061263b565b9050336001600160a01b03821614610a3c5760405162461bcd60e51b81526020600482015260146024820152731bdb9b1e48189c9a5919d9481b585e4818d85b1b60621b6044820152606401610512565b60ca5460405163d80f5a8760e01b81526001600160a01b0384811660048301529091169063d80f5a8790602401602060405180830381865afa158015610a86573d6000803e3d6000fd5b505050506040513d601f19601f82011682018060405250810190610aaa919061268d565b610ac65760405162461bcd60e51b8152600401610512906126aa565b60ca546040516354f8177f60e11b81526001600160a01b039091169063a9f02efe90610af89085908b906004016126d2565b602060405180830381865afa158015610b15573d6000803e3d6000fd5b505050506040513d601f19601f82011682018060405250810190610b39919061268d565b610b7d5760405162461bcd60e51b81526020600482015260156024820152746261736b6574206f7574206f662062616c616e636560581b6044820152606401610512565b60ca54604051631af327bd60e01b815260009182916001600160a01b0390911690631af327bd90610bb49087908d906004016126d2565b6040805180830381865afa158015610bd0573d6000803e3d6000fd5b505050506040513d601f19601f82011682018060405250810190610bf491906126eb565b915091506000610c05836001611a00565b60cb546040516340c10f1960e01b81529192506001600160a01b0316906340c10f1990610c3890899085906004016126d2565b600060405180830381600087803b158015610c5257600080fd5b505af1158015610c66573d6000803e3d6000fd5b5050604080518481526001600160a01b03898116602083015291810186905290891692503391507f30873c596f54a2e2e09894670d7e1a48b2433c00204f81fbedf557353c36e7c79060600160405180910390a3505050505050610cca6001606555565b50505050565b600054610100900460ff1615808015610cf05750600054600160ff909116105b80610d0a5750303b158015610d0a575060005460ff166001145b610d6d5760405162461bcd60e51b815260206004820152602e60248201527f496e697469616c697a61626c653a20636f6e747261637420697320616c72656160448201526d191e481a5b9a5d1a585b1a5e995960921b6064820152608401610512565b6000805460ff191660011790558015610d90576000805461ff0019166101001790555b60ca546001600160a01b0316158015610db2575060cb546001600160a01b0316155b610df45760405162461bcd60e51b8152602060048201526013602482015272185b1c9958591e481a5b9a5d1a585b1a5e9959606a1b6044820152606401610512565b6001600160a01b038416610e435760405162461bcd60e51b815260206004820152601660248201527534b73b30b634b2103130b9b5b2ba1036b0b730b3b2b960511b6044820152606401610512565b6001600160a01b038316610e895760405162461bcd60e51b815260206004820152600d60248201526c34b73b30b634b2103a37b5b2b760991b6044820152606401610512565b610e91611b68565b610e99611b98565b60ca80546001600160a01b038087166001600160a01b03199283161790925560cb8054928616929091169190911790558115610ed757610ed7611bbf565b6040805180820190915260038152620312e360ec1b602082015260c990610efe908261257b565b508015610cca576000805461ff0019169055604051600181527f7f26b83ff96e1f2b6a682f133852f6798a09c465da95921460cefb38474024989060200160405180910390a150505050565b610f526118d9565b6001600160a01b038116610fb75760405162461bcd60e51b815260206004820152602660248201527f4f776e61626c653a206e6577206f776e657220697320746865207a65726f206160448201526564647265737360d01b6064820152608401610512565b610fc081611933565b50565b6000610fcd610fdb565b610418848484600080611034565b60026065540361102d5760405162461bcd60e51b815260206004820152601f60248201527f5265656e7472616e637947756172643a207265656e7472616e742063616c6c006044820152606401610512565b6002606555565b60006001600160a01b0384166110885760405162461bcd60e51b81526020600482015260196024820152781b5d5cdd0818994818481d985b1a59081c9958da5c1a595b9d603a1b6044820152606401610512565b600085116110e75760405162461bcd60e51b815260206004820152602660248201527f6d6173736574207175616e74697479206d75737420626520677265617465722060448201526507468616e20360d41b6064820152608401610512565b60ca5460405163d80f5a8760e01b81526001600160a01b0388811660048301529091169063d80f5a8790602401602060405180830381865afa158015611131573d6000803e3d6000fd5b505050506040513d601f19601f82011682018060405250810190611155919061268d565b6111715760405162461bcd60e51b8152600401610512906126aa565b600083801561117e575082155b611188573361118a565b845b90506000611199878387611c4e565b60ca54604051635ac9946160e01b815291925060009182916001600160a01b031690635ac99461906111d1908d9087906004016126d2565b6040805180830381865afa1580156111ed573d6000803e3d6000fd5b505050506040513d601f19601f8201168201806040525081019061121191906126eb565b60ca5460405163c7bbc86560e01b81529294509092506001600160a01b03169063c7bbc86590611247908d9086906004016126d2565b602060405180830381865afa158015611264573d6000803e3d6000fd5b505050506040513d601f19601f82011682018060405250810190611288919061268d565b6112c55760405162461bcd60e51b815260206004820152600e60248201526d1a5b9d985b1a590818985cdad95d60921b6044820152606401610512565b60cb54604051632770a7eb60e21b81526001600160a01b0390911690639dc29fac906112f790879085906004016126d2565b600060405180830381600087803b15801561131157600080fd5b505af1158015611325573d6000803e3d6000fd5b505050508680156113335750855b1561152c5760ca5460405163f44c7c8f60e01b81526001600160a01b038c81166004830152600092169063f44c7c8f90602401602060405180830381865afa158015611383573d6000803e3d6000fd5b505050506040513d601f19601f820116820180604052508101906113a7919061263b565b90506001600160a01b0381166113f05760405162461bcd60e51b815260206004820152600e60248201526d696e76616c69642062726964676560901b6044820152606401610512565b60405163095ea7b360e01b81526001600160a01b038c169063095ea7b39061141e90849087906004016126d2565b6020604051808303816000875af115801561143d573d6000803e3d6000fd5b505050506040513d601f19601f82011682018060405250810190611461919061268d565b50604080516020810182526000815290516303f2e9b160e51b81526001600160a01b03831691637e5d36209161149f918f9188918f9160040161270f565b6020604051808303816000875af11580156114be573d6000803e3d6000fd5b505050506040513d601f19601f820116820180604052508101906114e2919061268d565b6115265760405162461bcd60e51b815260206004820152601560248201527418d85b1b081d1bc8189c9a5919d94819985a5b1959605a1b6044820152606401610512565b50611540565b6115406001600160a01b038b168984611d6f565b604080518a81526001600160a01b038c81166020830152918101849052818a16918616907fa0dde38365e7863fcda1e12536206bc5ab0b7074a66a441e866145cf3d07fc249060600160405180910390a39998505050505050505050565b6001606555565b60006001600160a01b0382166115f95760405162461bcd60e51b81526020600482015260196024820152781b5d5cdd0818994818481d985b1a59081c9958da5c1a595b9d603a1b6044820152606401610512565b600083116116425760405162461bcd60e51b815260206004820152601660248201527507175616e74697479206d757374206e6f7420626520360541b6044820152606401610512565b60ca5460405163d80f5a8760e01b81526001600160a01b0386811660048301529091169063d80f5a8790602401602060405180830381865afa15801561168c573d6000803e3d6000fd5b505050506040513d601f19601f820116820180604052508101906116b0919061268d565b6116cc5760405162461bcd60e51b8152600401610512906126aa565b60ca546040516354f8177f60e11b81526001600160a01b039091169063a9f02efe906116fe90879087906004016126d2565b602060405180830381865afa15801561171b573d6000803e3d6000fd5b505050506040513d601f19601f8201168201806040525081019061173f919061268d565b61177c5760405162461bcd60e51b815260206004820152600e60248201526d1a5b9d985b1a590818985cdad95d60921b6044820152606401610512565b60ca54604051631af327bd60e01b815260009182916001600160a01b0390911690631af327bd906117b390899089906004016126d2565b6040805180830381865afa1580156117cf573d6000803e3d6000fd5b505050506040513d601f19601f820116820180604052508101906117f391906126eb565b909250905061180d6001600160a01b038716333084611dca565b600061181a836000611a00565b60cb546040516340c10f1960e01b81529192506001600160a01b0316906340c10f199061184d90889085906004016126d2565b600060405180830381600087803b15801561186757600080fd5b505af115801561187b573d6000803e3d6000fd5b5050604080518481526001600160a01b038b8116602083015291810186905290881692503391507f30873c596f54a2e2e09894670d7e1a48b2433c00204f81fbedf557353c36e7c79060600160405180910390a39695505050505050565b6033546001600160a01b0316331461071a5760405162461bcd60e51b815260206004820181905260248201527f4f776e61626c653a2063616c6c6572206973206e6f7420746865206f776e65726044820152606401610512565b603380546001600160a01b038381166001600160a01b0319831681179093556040519116919082907f8be0079c531659141344cd1fd0a4f28419497f9722a3daafe3b4186f6b6457e090600090a35050565b6000808280602001905181019061199c919061263b565b90506001600160a01b0381166103e85760405162461bcd60e51b815260206004820152602360248201527f436f6e7665727465723a204572726f72206465636f64696e672065787472614460448201526261746160e81b6064820152608401610512565b6000808215611a7d5760cd546040516332627ddd60e11b8152600481018690526001600160a01b03909116906364c4fbba90602401602060405180830381865afa158015611a52573d6000803e3d6000fd5b505050506040513d601f19601f82011682018060405250810190611a769190612742565b9050611aed565b60cd5460405163247d284b60e01b8152600481018690526001600160a01b039091169063247d284b90602401602060405180830381865afa158015611ac6573d6000803e3d6000fd5b505050506040513d601f19601f82011682018060405250810190611aea9190612742565b90505b611af78482611e02565b60cb5460cc546040516340c10f1960e01b81529294506001600160a01b03918216926340c10f1992611b2f92169085906004016126d2565b600060405180830381600087803b158015611b4957600080fd5b505af1158015611b5d573d6000803e3d6000fd5b505050505092915050565b600054610100900460ff16611b8f5760405162461bcd60e51b81526004016105129061275b565b61071a33611933565b600054610100900460ff1661159e5760405162461bcd60e51b81526004016105129061275b565b6040516329965a1d60e01b815230600482018190527fb281fc8c12954d22544db45de3159a39272895b169a852b314f9cc762e44c53b60248301526044820152731820a4b7618bde71dce8cdc73aab6c95905fad249081906329965a1d90606401600060405180830381600087803b158015611c3a57600080fd5b505af1158015610701573d6000803e3d6000fd5b6000808215611ccb5760cd54604051630fb9eae160e21b8152600481018790526001600160a01b0390911690633ee7ab8490602401602060405180830381865afa158015611ca0573d6000803e3d6000fd5b505050506040513d601f19601f82011682018060405250810190611cc49190612742565b9050611d3b565b60cd546040516307f0c60160e41b8152600481018790526001600160a01b0390911690637f0c601090602401602060405180830381865afa158015611d14573d6000803e3d6000fd5b505050506040513d601f19601f82011682018060405250810190611d389190612742565b90505b611d458582611e02565b60cc5460cb54919350611d67916001600160a01b039081169187911684611dca565b509392505050565b611dc58363a9059cbb60e01b8484604051602401611d8e9291906126d2565b60408051601f198184030181529190526020810180516001600160e01b03166001600160e01b031990931692909217909152611e0e565b505050565b6040516001600160a01b0380851660248301528316604482015260648101829052610cca9085906323b872dd60e01b90608401611d8e565b600061042482846127a6565b6000611e63826040518060400160405280602081526020017f5361666545524332303a206c6f772d6c6576656c2063616c6c206661696c6564815250856001600160a01b0316611ee09092919063ffffffff16565b805190915015611dc55780806020019051810190611e81919061268d565b611dc55760405162461bcd60e51b815260206004820152602a60248201527f5361666545524332303a204552433230206f7065726174696f6e20646964206e6044820152691bdd081cdd58d8d9595960b21b6064820152608401610512565b606061032a848460008585600080866001600160a01b03168587604051611f0791906127c7565b60006040518083038185875af1925050503d8060008114611f44576040519150601f19603f3d011682016040523d82523d6000602084013e611f49565b606091505b5091509150611f5a87838387611f65565b979650505050505050565b60608315611fd4578251600003611fcd576001600160a01b0385163b611fcd5760405162461bcd60e51b815260206004820152601d60248201527f416464726573733a2063616c6c20746f206e6f6e2d636f6e74726163740000006044820152606401610512565b508161032a565b61032a8383815115611fe95781518083602001fd5b8060405162461bcd60e51b815260040161051291906121b5565b6001600160a01b0381168114610fc057600080fd5b60008083601f84011261202a57600080fd5b50813567ffffffffffffffff81111561204257600080fd5b60208301915083602082850101111561205a57600080fd5b9250929050565b60008060008060008060008060c0898b03121561207d57600080fd5b883561208881612003565b9750602089013561209881612003565b965060408901356120a881612003565b955060608901359450608089013567ffffffffffffffff808211156120cc57600080fd5b6120d88c838d01612018565b909650945060a08b01359150808211156120f157600080fd5b506120fe8b828c01612018565b999c989b5096995094979396929594505050565b6000806000806080858703121561212857600080fd5b843561213381612003565b935060208501359250604085013561214a81612003565b9150606085013561215a81612003565b939692955090935050565b60005b83811015612180578181015183820152602001612168565b50506000910152565b600081518084526121a1816020860160208601612165565b601f01601f19169290920160200192915050565b6020815260006104246020830184612189565b600080604083850312156121db57600080fd5b82356121e681612003565b946020939093013593505050565b60008060006060848603121561220957600080fd5b833561221481612003565b925060208401359150604084013561222b81612003565b809150509250925092565b6000806000806080858703121561224c57600080fd5b843561225781612003565b9350602085013561226781612003565b9250604085013561214a81612003565b6000806000806060858703121561228d57600080fd5b84359350602085013561229f81612003565b9250604085013567ffffffffffffffff8111156122bb57600080fd5b6122c787828801612018565b95989497509550505050565b8015158114610fc057600080fd5b6000806000606084860312156122f657600080fd5b833561230181612003565b9250602084013561231181612003565b9150604084013561222b816122d3565b60006020828403121561233357600080fd5b813561042481612003565b81835281816020850137506000828201602090810191909152601f909101601f19169091010190565b6001600160a01b0389811682528881166020830152871660408201526060810186905260c0608082018190526000906123a3908301868861233e565b82810360a08401526123b681858761233e565b9b9a5050505050505050505050565b600181811c908216806123d957607f821691505b6020821081036123f957634e487b7160e01b600052602260045260246000fd5b50919050565b600080835461240d816123c5565b60018281168015612425576001811461243a57612469565b60ff1984168752821515830287019450612469565b8760005260208060002060005b858110156124605781548a820152908401908201612447565b50505082870194505b50929695505050505050565b634e487b7160e01b600052604160045260246000fd5b60006020828403121561249d57600080fd5b815167ffffffffffffffff808211156124b557600080fd5b818401915084601f8301126124c957600080fd5b8151818111156124db576124db612475565b604051601f8201601f19908116603f0116810190838211818310171561250357612503612475565b8160405282815287602084870101111561251c57600080fd5b611f5a836020830160208801612165565b601f821115611dc557600081815260208120601f850160051c810160208610156125545750805b601f850160051c820191505b8181101561257357828155600101612560565b505050505050565b815167ffffffffffffffff81111561259557612595612475565b6125a9816125a384546123c5565b8461252d565b602080601f8311600181146125de57600084156125c65750858301515b600019600386901b1c1916600185901b178555612573565b600085815260208120601f198616915b8281101561260d578886015182559484019460019091019084016125ee565b508582101561262b5787850151600019600388901b60f8161c191681555b5050505050600190811b01905550565b60006020828403121561264d57600080fd5b815161042481612003565b8481526001600160a01b0384166020820152606060408201819052600090612683908301848661233e565b9695505050505050565b60006020828403121561269f57600080fd5b8151610424816122d3565b6020808252600e908201526d1a5b9d985b1a590818985cdcd95d60921b604082015260600190565b6001600160a01b03929092168252602082015260400190565b600080604083850312156126fe57600080fd5b505080516020909101519092909150565b6001600160a01b038581168252602082018590528316604082015260806060820181905260009061268390830184612189565b60006020828403121561275457600080fd5b5051919050565b6020808252602b908201527f496e697469616c697a61626c653a20636f6e7472616374206973206e6f74206960408201526a6e697469616c697a696e6760a81b606082015260800190565b818103818111156103e857634e487b7160e01b600052601160045260246000fd5b600082516127d9818460208701612165565b919091019291505056fea26469706673582212207e2ed64866ab4b9ea474060630149dc62478cea9e4046c2b5caff4121e2d75c664736f6c63430008110033",
  "devdoc": {
    "details": "Contract is responsible for managing mAsset and bAsset. Used for minting and burning tokens, calculating fees and calling the bridge if transaction based on token from another blockchain.",
    "events": {
      "Minted(address,address,uint256,address,uint256)": {
        "details": "Emitted when deposit is completed.",
        "params": {
          "bAsset": "Address of the bAsset.",
          "bassetQuantity": "Basset quantity.",
          "massetQuantity": "Masset quantity.",
          "minter": "Address of the minter.",
          "recipient": "Address of the recipient."
        }
      },
      "Redeemed(address,address,uint256,address,uint256)": {
        "details": "Emitted when withdrawal is completed.",
        "params": {
          "bAsset": "Address of the bAsset.",
          "bassetQuantity": "Basset quantity.",
          "massetQuantity": "Masset quantity.",
          "recipient": "Address of the recipient.",
          "redeemer": "Address of the redeemer."
        }
      },
      "onTokensMintedCalled(address,uint256,address,bytes)": {
        "details": "Emitted when onTokensMinted method is called by the bridge.",
        "params": {
          "orderAmount": "Units of the masset to redeem.",
          "sender": "Address of the sender.",
          "tokenAddress": "Address of the bAsset to redeem.",
          "userData": "Address of the final recipient as ABI encoded bytes."
        }
      },
      "onTokensReceivedCalled(address,address,address,uint256,bytes,bytes)": {
        "details": "Emitted when tokensReceived method is called by the bridge.",
        "params": {
          "amount": "uint256 amount of tokens to transfer.",
          "from": "Address token holder address.",
          "operator": "Address operator requesting the transfer.",
          "operatorData": "Bytes extra information provided by the operator (if any).",
          "to": "Address recipient address.",
          "userData": "Bytes extra information provided by the token holder (if any)."
        }
      }
    },
    "kind": "dev",
    "methods": {
      "getProxyImplementation()": {
        "details": "get the implementation logic address referring to ERC1967 standard.",
        "returns": {
          "_0": "logic implementation address."
        }
      },
      "initialize(address,address,bool)": {
        "details": "Contract initializer.",
        "params": {
          "_basketManagerAddress": "Address of the basket manager.",
          "_registerAsERC777RecipientFlag": "Bool determine if contract should be register as ERC777 recipient.",
          "_tokenAddress": "Address of the mAsset token."
        }
      },
      "mint(address,uint256)": {
        "details": "Mint a single mAsset, at a 1:1 ratio with the bAsset. This contract      must have approval to spend the senders bAsset.",
        "params": {
          "_bAsset": "Address of the bAsset.",
          "_bAssetQuantity": "Quantity in bAsset units."
        },
        "returns": {
          "massetMinted": "  Number of newly minted mAssets."
        }
      },
      "mintTo(address,uint256,address)": {
        "details": "Mint a single mAsset to recipient address, at a 1:1 ratio with the bAsset.      This contract must have approval to spend the senders bAsset.",
        "params": {
          "_bAsset": "Address of the bAsset.",
          "_bAssetQuantity": "Quantity in bAsset units.",
          "_recipient": "Receipient of the newly minted mAsset tokens."
        },
        "returns": {
          "massetMinted": "  Number of newly minted mAssets."
        }
      },
      "onTokensMinted(uint256,address,bytes)": {
        "details": "This is called by the bridge to let us know the user has sent tokens through it and      into the mAsset.",
        "params": {
          "_orderAmount": "Units of the mAsset to redeem.",
          "_tokenAddress": "Address of the bAsset to redeem.",
          "_userData": "Address of the final recipient as ABI encoded bytes."
        }
      },
      "owner()": {
        "details": "Returns the address of the current owner."
      },
      "redeem(address,uint256)": {
        "details": "Credits the sender with a certain quantity of selected bAsset, in exchange for burning the      relative mAsset quantity from the sender. Sender also incurs a small mAsset fee, if any.",
        "params": {
          "_bAsset": "Address of the bAsset to redeem.",
          "_massetQuantity": "Units of the masset to redeem."
        },
        "returns": {
          "massetRedeemed": "  Relative number of mAsset units burned to pay for the bAssets."
        }
      },
      "redeemByBridge(address,uint256,address)": {
        "details": "Credits a recipient with a certain quantity of selected bAsset, in exchange for burning the      relative mAsset quantity from the sender. Sender also incurs a small fee, if any.      This function is designed to be called by the bridge in order to have diffrent fees.",
        "params": {
          "_basset": "Address of the bAsset to redeem.",
          "_massetQuantity": "Units of the mAsset to redeem.",
          "_recipient": "Address to credit with withdrawn bAssets."
        },
        "returns": {
          "massetRedeemed": "    Relative number of mAsset units burned to pay for the bAssets."
        }
      },
      "redeemTo(address,uint256,address)": {
        "details": "Credits a recipient with a certain quantity of selected bAsset, in exchange for burning the      relative mAsset quantity from the sender. Sender also incurs a small fee, if any.",
        "params": {
          "_bAsset": "Address of the bAsset to redeem.",
          "_massetQuantity": "Units of the masset to redeem.",
          "_recipient": "Address to credit with withdrawn bAssets."
        },
        "returns": {
          "massetRedeemed": "  Relative number of mAsset units burned to pay for the bAssets."
        }
      },
      "redeemToBridge(address,uint256,address)": {
        "details": "Credits a recipient with a certain quantity of selected bAsset, in exchange for burning the      relative mAsset quantity from the sender. Sender also incurs a small fee, if any.      This function is designed to also call the bridge in order to have the basset tokens sent to      another blockchain.",
        "params": {
          "_basset": "Address of the bAsset to redeem.",
          "_massetQuantity": "Units of the mAsset to redeem.",
          "_recipient": "Address to credit with withdrawn bAssets."
        },
        "returns": {
          "massetRedeemed": "  Relative number of mAsset units burned to pay for the bAssets."
        }
      },
      "redeemToBridge(address,uint256,address,address)": {
        "details": "Credits a recipient with a certain quantity of selected bAsset, in exchange for burning the      relative mAsset quantity from the sender. Sender also incurs a small fee, if any.      This function is designed to also call the bridge in order to have the basset tokens sent to      another blockchain.",
        "params": {
          "_basset": "Address of the bAsset to redeem.",
          "_bridgeAddress": "This is ignored and is left here for backward compatibility with the FE.",
          "_massetQuantity": "Units of the mAsset to redeem.",
          "_recipient": "Address to credit with withdrawn bAssets."
        },
        "returns": {
          "massetRedeemed": "  Relative number of mAsset units burned to pay for the bAssets."
        }
      },
      "renounceOwnership()": {
        "details": "Leaves the contract without owner. It will not be possible to call `onlyOwner` functions anymore. Can only be called by the current owner. NOTE: Renouncing ownership will leave the contract without an owner, thereby removing any functionality that is only available to the owner."
      },
      "tokensReceived(address,address,address,uint256,bytes,bytes)": {
        "details": "This is called by the bridge to let us know tokens have been received.",
        "params": {
          "_amount": "uint256 amount of tokens to transfer.",
          "_from": "Address token holder address.",
          "_operator": "Address operator requesting the transfer.",
          "_operatorData": "Bytes extra information provided by the operator (if any).",
          "_to": "Address recipient address.",
          "_userData": "Bytes extra information provided by the token holder (if any)."
        }
      },
      "transferOwnership(address)": {
        "details": "Transfers ownership of the contract to a new account (`newOwner`). Can only be called by the current owner."
      },
      "upgradeToV3(address,address,address,address)": {
        "details": "Migration to V3 version.",
        "params": {
          "_basketManagerAddress": "Address of new BasketManagerV3.",
          "_feesManagerAddress": "Adress of FeesManager contract.",
          "_feesVaultAddress": "Address of FeesVault contract.",
          "_tokenAddress": "Address of mAsset token."
        }
      }
    },
    "title": "MassetV3",
    "version": 1
  },
  "userdoc": {
    "kind": "user",
    "methods": {},
    "version": 1
  },
  "storageLayout": {
    "storage": [
      {
        "astId": 527,
        "contract": "contracts/masset/MassetV3.sol:MassetV3",
        "label": "_initialized",
        "offset": 0,
        "slot": "0",
        "type": "t_uint8"
      },
      {
        "astId": 530,
        "contract": "contracts/masset/MassetV3.sol:MassetV3",
        "label": "_initializing",
        "offset": 1,
        "slot": "0",
        "type": "t_bool"
      },
      {
        "astId": 1087,
        "contract": "contracts/masset/MassetV3.sol:MassetV3",
        "label": "__gap",
        "offset": 0,
        "slot": "1",
        "type": "t_array(t_uint256)50_storage"
      },
      {
        "astId": 10,
        "contract": "contracts/masset/MassetV3.sol:MassetV3",
        "label": "_owner",
        "offset": 0,
        "slot": "51",
        "type": "t_address"
      },
      {
        "astId": 130,
        "contract": "contracts/masset/MassetV3.sol:MassetV3",
        "label": "__gap",
        "offset": 0,
        "slot": "52",
        "type": "t_array(t_uint256)49_storage"
      },
      {
        "astId": 703,
        "contract": "contracts/masset/MassetV3.sol:MassetV3",
        "label": "_status",
        "offset": 0,
        "slot": "101",
        "type": "t_uint256"
      },
      {
        "astId": 761,
        "contract": "contracts/masset/MassetV3.sol:MassetV3",
        "label": "__gap",
        "offset": 0,
        "slot": "102",
        "type": "t_array(t_uint256)49_storage"
      },
      {
        "astId": 509,
        "contract": "contracts/masset/MassetV3.sol:MassetV3",
        "label": "__gap",
        "offset": 0,
        "slot": "151",
        "type": "t_array(t_uint256)50_storage"
      },
      {
        "astId": 7312,
        "contract": "contracts/masset/MassetV3.sol:MassetV3",
        "label": "version",
        "offset": 0,
        "slot": "201",
        "type": "t_string_storage"
      },
      {
        "astId": 7315,
        "contract": "contracts/masset/MassetV3.sol:MassetV3",
        "label": "basketManager",
        "offset": 0,
        "slot": "202",
        "type": "t_contract(BasketManagerV3)6759"
      },
      {
        "astId": 7318,
        "contract": "contracts/masset/MassetV3.sol:MassetV3",
        "label": "token",
        "offset": 0,
        "slot": "203",
        "type": "t_contract(MetaAssetToken)9827"
      },
      {
        "astId": 7321,
        "contract": "contracts/masset/MassetV3.sol:MassetV3",
        "label": "feesVault",
        "offset": 0,
        "slot": "204",
        "type": "t_contract(FeesVault)10656"
      },
      {
        "astId": 7324,
        "contract": "contracts/masset/MassetV3.sol:MassetV3",
        "label": "feesManager",
        "offset": 0,
        "slot": "205",
        "type": "t_contract(FeesManager)7037"
      }
    ],
    "types": {
      "t_address": {
        "encoding": "inplace",
        "label": "address",
        "numberOfBytes": "20"
      },
      "t_array(t_uint256)49_storage": {
        "base": "t_uint256",
        "encoding": "inplace",
        "label": "uint256[49]",
        "numberOfBytes": "1568"
      },
      "t_array(t_uint256)50_storage": {
        "base": "t_uint256",
        "encoding": "inplace",
        "label": "uint256[50]",
        "numberOfBytes": "1600"
      },
      "t_bool": {
        "encoding": "inplace",
        "label": "bool",
        "numberOfBytes": "1"
      },
      "t_contract(BasketManagerV3)6759": {
        "encoding": "inplace",
        "label": "contract BasketManagerV3",
        "numberOfBytes": "20"
      },
      "t_contract(FeesManager)7037": {
        "encoding": "inplace",
        "label": "contract FeesManager",
        "numberOfBytes": "20"
      },
      "t_contract(FeesVault)10656": {
        "encoding": "inplace",
        "label": "contract FeesVault",
        "numberOfBytes": "20"
      },
      "t_contract(MetaAssetToken)9827": {
        "encoding": "inplace",
        "label": "contract MetaAssetToken",
        "numberOfBytes": "20"
      },
      "t_string_storage": {
        "encoding": "bytes",
        "label": "string",
        "numberOfBytes": "32"
      },
      "t_uint256": {
        "encoding": "inplace",
        "label": "uint256",
        "numberOfBytes": "32"
      },
      "t_uint8": {
        "encoding": "inplace",
        "label": "uint8",
        "numberOfBytes": "1"
      }
    }
  }
}