{
  "address": "0xF4CF4554DAAaD1De70B449187e3d50128b070f6D",
  "abi": [
    {
      "inputs": [
        {
          "internalType": "string",
          "name": "_tokenName",
          "type": "string"
        },
        {
          "internalType": "string",
          "name": "_symbol",
          "type": "string"
        }
      ],
      "payable": false,
      "stateMutability": "nonpayable",
      "type": "constructor"
    },
    {
      "anonymous": false,
      "inputs": [
        {
          "indexed": true,
          "internalType": "address",
          "name": "owner",
          "type": "address"
        },
        {
          "indexed": true,
          "internalType": "address",
          "name": "spender",
          "type": "address"
        },
        {
          "indexed": false,
          "internalType": "uint256",
          "name": "value",
          "type": "uint256"
        }
      ],
      "name": "Approval",
      "type": "event"
    },
    {
      "anonymous": false,
      "inputs": [
        {
          "indexed": true,
          "internalType": "address",
          "name": "_newAssetProxy",
          "type": "address"
        }
      ],
      "name": "AssetProxyChanged",
      "type": "event"
    },
    {
      "anonymous": false,
      "inputs": [
        {
          "indexed": true,
          "internalType": "address",
          "name": "_newBasketManagerProxy",
          "type": "address"
        }
      ],
      "name": "BasketManagerProxyChanged",
      "type": "event"
    },
    {
      "anonymous": false,
      "inputs": [
        {
          "indexed": true,
          "internalType": "address",
          "name": "previousOwner",
          "type": "address"
        },
        {
          "indexed": true,
          "internalType": "address",
          "name": "newOwner",
          "type": "address"
        }
      ],
      "name": "OwnershipTransferred",
      "type": "event"
    },
    {
      "anonymous": false,
      "inputs": [
        {
          "indexed": true,
          "internalType": "address",
          "name": "from",
          "type": "address"
        },
        {
          "indexed": true,
          "internalType": "address",
          "name": "to",
          "type": "address"
        },
        {
          "indexed": false,
          "internalType": "uint256",
          "name": "value",
          "type": "uint256"
        }
      ],
      "name": "Transfer",
      "type": "event"
    },
    {
      "constant": true,
      "inputs": [],
      "name": "DOMAIN_SEPARATOR",
      "outputs": [
        {
          "internalType": "bytes32",
          "name": "",
          "type": "bytes32"
        }
      ],
      "payable": false,
      "stateMutability": "view",
      "type": "function"
    },
    {
      "constant": true,
      "inputs": [],
      "name": "PERMIT_TYPEHASH",
      "outputs": [
        {
          "internalType": "bytes32",
          "name": "",
          "type": "bytes32"
        }
      ],
      "payable": false,
      "stateMutability": "view",
      "type": "function"
    },
    {
      "constant": true,
      "inputs": [
        {
          "internalType": "address",
          "name": "owner",
          "type": "address"
        },
        {
          "internalType": "address",
          "name": "spender",
          "type": "address"
        }
      ],
      "name": "allowance",
      "outputs": [
        {
          "internalType": "uint256",
          "name": "",
          "type": "uint256"
        }
      ],
      "payable": false,
      "stateMutability": "view",
      "type": "function"
    },
    {
      "constant": false,
      "inputs": [
        {
          "internalType": "address",
          "name": "spender",
          "type": "address"
        },
        {
          "internalType": "uint256",
          "name": "amount",
          "type": "uint256"
        }
      ],
      "name": "approve",
      "outputs": [
        {
          "internalType": "bool",
          "name": "",
          "type": "bool"
        }
      ],
      "payable": false,
      "stateMutability": "nonpayable",
      "type": "function"
    },
    {
      "constant": false,
      "inputs": [
        {
          "internalType": "address",
          "name": "_spender",
          "type": "address"
        },
        {
          "internalType": "uint256",
          "name": "_amount",
          "type": "uint256"
        },
        {
          "internalType": "bytes",
          "name": "_data",
          "type": "bytes"
        }
      ],
      "name": "approveAndCall",
      "outputs": [],
      "payable": false,
      "stateMutability": "nonpayable",
      "type": "function"
    },
    {
      "constant": true,
      "inputs": [],
      "name": "assetImplementation",
      "outputs": [
        {
          "internalType": "address",
          "name": "",
          "type": "address"
        }
      ],
      "payable": false,
      "stateMutability": "view",
      "type": "function"
    },
    {
      "constant": true,
      "inputs": [],
      "name": "assetProxy",
      "outputs": [
        {
          "internalType": "address",
          "name": "",
          "type": "address"
        }
      ],
      "payable": false,
      "stateMutability": "view",
      "type": "function"
    },
    {
      "constant": true,
      "inputs": [
        {
          "internalType": "address",
          "name": "account",
          "type": "address"
        }
      ],
      "name": "balanceOf",
      "outputs": [
        {
          "internalType": "uint256",
          "name": "",
          "type": "uint256"
        }
      ],
      "payable": false,
      "stateMutability": "view",
      "type": "function"
    },
    {
      "constant": true,
      "inputs": [],
      "name": "basketManagerImplementation",
      "outputs": [
        {
          "internalType": "address",
          "name": "",
          "type": "address"
        }
      ],
      "payable": false,
      "stateMutability": "view",
      "type": "function"
    },
    {
      "constant": true,
      "inputs": [],
      "name": "basketManagerProxy",
      "outputs": [
        {
          "internalType": "address",
          "name": "",
          "type": "address"
        }
      ],
      "payable": false,
      "stateMutability": "view",
      "type": "function"
    },
    {
      "constant": false,
      "inputs": [
        {
          "internalType": "address",
          "name": "_account",
          "type": "address"
        },
        {
          "internalType": "uint256",
          "name": "_amount",
          "type": "uint256"
        }
      ],
      "name": "burn",
      "outputs": [],
      "payable": false,
      "stateMutability": "nonpayable",
      "type": "function"
    },
    {
      "constant": true,
      "inputs": [],
      "name": "decimals",
      "outputs": [
        {
          "internalType": "uint8",
          "name": "",
          "type": "uint8"
        }
      ],
      "payable": false,
      "stateMutability": "view",
      "type": "function"
    },
    {
      "constant": false,
      "inputs": [
        {
          "internalType": "address",
          "name": "spender",
          "type": "address"
        },
        {
          "internalType": "uint256",
          "name": "subtractedValue",
          "type": "uint256"
        }
      ],
      "name": "decreaseAllowance",
      "outputs": [
        {
          "internalType": "bool",
          "name": "",
          "type": "bool"
        }
      ],
      "payable": false,
      "stateMutability": "nonpayable",
      "type": "function"
    },
    {
      "constant": true,
      "inputs": [],
      "name": "getChainID",
      "outputs": [
        {
          "internalType": "uint256",
          "name": "",
          "type": "uint256"
        }
      ],
      "payable": false,
      "stateMutability": "pure",
      "type": "function"
    },
    {
      "constant": false,
      "inputs": [
        {
          "internalType": "address",
          "name": "spender",
          "type": "address"
        },
        {
          "internalType": "uint256",
          "name": "addedValue",
          "type": "uint256"
        }
      ],
      "name": "increaseAllowance",
      "outputs": [
        {
          "internalType": "bool",
          "name": "",
          "type": "bool"
        }
      ],
      "payable": false,
      "stateMutability": "nonpayable",
      "type": "function"
    },
    {
      "constant": true,
      "inputs": [],
      "name": "isOwner",
      "outputs": [
        {
          "internalType": "bool",
          "name": "",
          "type": "bool"
        }
      ],
      "payable": false,
      "stateMutability": "view",
      "type": "function"
    },
    {
      "constant": false,
      "inputs": [
        {
          "internalType": "address",
          "name": "_account",
          "type": "address"
        },
        {
          "internalType": "uint256",
          "name": "_amount",
          "type": "uint256"
        }
      ],
      "name": "mint",
      "outputs": [],
      "payable": false,
      "stateMutability": "nonpayable",
      "type": "function"
    },
    {
      "constant": true,
      "inputs": [],
      "name": "name",
      "outputs": [
        {
          "internalType": "string",
          "name": "",
          "type": "string"
        }
      ],
      "payable": false,
      "stateMutability": "view",
      "type": "function"
    },
    {
      "constant": true,
      "inputs": [
        {
          "internalType": "address",
          "name": "owner",
          "type": "address"
        }
      ],
      "name": "nonces",
      "outputs": [
        {
          "internalType": "uint256",
          "name": "",
          "type": "uint256"
        }
      ],
      "payable": false,
      "stateMutability": "view",
      "type": "function"
    },
    {
      "constant": true,
      "inputs": [],
      "name": "owner",
      "outputs": [
        {
          "internalType": "address",
          "name": "",
          "type": "address"
        }
      ],
      "payable": false,
      "stateMutability": "view",
      "type": "function"
    },
    {
      "constant": false,
      "inputs": [
        {
          "internalType": "address",
          "name": "owner",
          "type": "address"
        },
        {
          "internalType": "address",
          "name": "spender",
          "type": "address"
        },
        {
          "internalType": "uint256",
          "name": "value",
          "type": "uint256"
        },
        {
          "internalType": "uint256",
          "name": "deadline",
          "type": "uint256"
        },
        {
          "internalType": "uint8",
          "name": "v",
          "type": "uint8"
        },
        {
          "internalType": "bytes32",
          "name": "r",
          "type": "bytes32"
        },
        {
          "internalType": "bytes32",
          "name": "s",
          "type": "bytes32"
        }
      ],
      "name": "permit",
      "outputs": [],
      "payable": false,
      "stateMutability": "nonpayable",
      "type": "function"
    },
    {
      "constant": false,
      "inputs": [],
      "name": "renounceOwnership",
      "outputs": [],
      "payable": false,
      "stateMutability": "nonpayable",
      "type": "function"
    },
    {
      "constant": false,
      "inputs": [
        {
          "internalType": "address",
          "name": "_assetProxy",
          "type": "address"
        }
      ],
      "name": "setAssetProxy",
      "outputs": [],
      "payable": false,
      "stateMutability": "nonpayable",
      "type": "function"
    },
    {
      "constant": false,
      "inputs": [
        {
          "internalType": "address",
          "name": "_basketManagerProxy",
          "type": "address"
        }
      ],
      "name": "setBasketManagerProxy",
      "outputs": [],
      "payable": false,
      "stateMutability": "nonpayable",
      "type": "function"
    },
    {
      "constant": true,
      "inputs": [],
      "name": "symbol",
      "outputs": [
        {
          "internalType": "string",
          "name": "",
          "type": "string"
        }
      ],
      "payable": false,
      "stateMutability": "view",
      "type": "function"
    },
    {
      "constant": true,
      "inputs": [],
      "name": "totalSupply",
      "outputs": [
        {
          "internalType": "uint256",
          "name": "",
          "type": "uint256"
        }
      ],
      "payable": false,
      "stateMutability": "view",
      "type": "function"
    },
    {
      "constant": false,
      "inputs": [
        {
          "internalType": "address",
          "name": "_recipient",
          "type": "address"
        },
        {
          "internalType": "uint256",
          "name": "_amount",
          "type": "uint256"
        }
      ],
      "name": "transfer",
      "outputs": [
        {
          "internalType": "bool",
          "name": "",
          "type": "bool"
        }
      ],
      "payable": false,
      "stateMutability": "nonpayable",
      "type": "function"
    },
    {
      "constant": false,
      "inputs": [
        {
          "internalType": "address",
          "name": "_from",
          "type": "address"
        },
        {
          "internalType": "address",
          "name": "_to",
          "type": "address"
        },
        {
          "internalType": "uint256",
          "name": "_amount",
          "type": "uint256"
        }
      ],
      "name": "transferFrom",
      "outputs": [
        {
          "internalType": "bool",
          "name": "",
          "type": "bool"
        }
      ],
      "payable": false,
      "stateMutability": "nonpayable",
      "type": "function"
    },
    {
      "constant": false,
      "inputs": [
        {
          "internalType": "address",
          "name": "newOwner",
          "type": "address"
        }
      ],
      "name": "transferOwnership",
      "outputs": [],
      "payable": false,
      "stateMutability": "nonpayable",
      "type": "function"
    },
    {
      "constant": false,
      "inputs": [
        {
          "internalType": "address",
          "name": "_from",
          "type": "address"
        },
        {
          "internalType": "address",
          "name": "_to",
          "type": "address"
        },
        {
          "internalType": "uint256",
          "name": "_amount",
          "type": "uint256"
        },
        {
          "internalType": "uint256",
          "name": "_deadline",
          "type": "uint256"
        },
        {
          "internalType": "uint8",
          "name": "_v",
          "type": "uint8"
        },
        {
          "internalType": "bytes32",
          "name": "_r",
          "type": "bytes32"
        },
        {
          "internalType": "bytes32",
          "name": "_s",
          "type": "bytes32"
        }
      ],
      "name": "transferWithPermit",
      "outputs": [],
      "payable": false,
      "stateMutability": "nonpayable",
      "type": "function"
    }
  ],
  "transactionHash": "0x8bdcda9477c414a485ceb8911fd5e3d45e1cc8b62627d07b05f9f75cbdc92f91",
  "args": [
    "MetaAsset",
    "MAT"
  ],
  "numDeployments": 1,
  "solcInputHash": "1a3e2dbf67d3233bbb3b7921dfe5a273",
  "bytecode": "0x60806040523480156200001157600080fd5b506040516200210e3803806200210e833981810160405260408110156200003757600080fd5b81019080805160405193929190846401000000008211156200005857600080fd5b9083019060208201858111156200006e57600080fd5b82516401000000008111828201881017156200008957600080fd5b82525081516020918201929091019080838360005b83811015620000b85781810151838201526020016200009e565b50505050905090810190601f168015620000e65780820380516001836020036101000a031916815260200191505b50604052602001805160405193929190846401000000008211156200010a57600080fd5b9083019060208201858111156200012057600080fd5b82516401000000008111828201881017156200013b57600080fd5b82525081516020918201929091019080838360005b838110156200016a57818101518382015260200162000150565b50505050905090810190601f168015620001985780820380516001836020036101000a031916815260200191505b50604052505050818160128260049080519060200190620001bb92919062000258565b508151620001d190600590602085019062000258565b506006805460ff191660ff929092169190911790555060009050620001f562000253565b60068054610100600160a81b0319166101006001600160a01b03841690810291909117909155604051919250906000907f8be0079c531659141344cd1fd0a4f28419497f9722a3daafe3b4186f6b6457e0908290a3505050620002fa565b335b90565b828054600181600116156101000203166002900490600052602060002090601f016020900481019282601f106200029b57805160ff1916838001178555620002cb565b82800160010185558215620002cb579182015b82811115620002cb578251825591602001919060010190620002ae565b50620002d9929150620002dd565b5090565b6200025591905b80821115620002d95760008155600101620002e4565b611e04806200030a6000396000f3fe608060405234801561001057600080fd5b50600436106101da5760003560e01c80637ecebe0011610104578063a9059cbb116100a2578063d505accf11610071578063d505accf146105a4578063dd62ed3e146105f5578063f2fde38b14610623578063fa38b22e14610649576101da565b8063a9059cbb146104c5578063c0b3569d146104f1578063c0d15b9c14610517578063cae9ca511461051f576101da565b806393be4d3a116100de57806393be4d3a1461045d57806395d89b41146104655780639dc29fac1461046d578063a457c2d714610499576101da565b80637ecebe00146104275780638da5cb5b1461044d5780638f32d59b14610455576101da565b8063313ce5671161017c578063564b81ef1161014b578063564b81ef146103a0578063605629d6146103a857806370a08231146103f9578063715018a61461041f576101da565b8063313ce567146103205780633644e5151461033e578063395093511461034657806340c10f1914610372576101da565b806318160ddd116101b857806318160ddd146102c057806323b872dd146102da57806329f3c4a11461031057806330adf81f14610318576101da565b806306fdde03146101df578063095ea7b31461025c5780630b1350cf1461029c575b600080fd5b6101e761066f565b6040805160208082528351818301528351919283929083019185019080838360005b83811015610221578181015183820152602001610209565b50505050905090810190601f16801561024e5780820380516001836020036101000a031916815260200191505b509250505060405180910390f35b6102886004803603604081101561027257600080fd5b506001600160a01b038135169060200135610705565b604080519115158252519081900360200190f35b6102a4610722565b604080516001600160a01b039092168252519081900360200190f35b6102c8610731565b60408051918252519081900360200190f35b610288600480360360608110156102f057600080fd5b506001600160a01b03813581169160208101359091169060400135610737565b6102a46108a8565b6102c86108b7565b6103286108d2565b6040805160ff9092168252519081900360200190f35b6102c86108db565b6102886004803603604081101561035c57600080fd5b506001600160a01b038135169060200135610975565b61039e6004803603604081101561038857600080fd5b506001600160a01b0381351690602001356109c9565b005b6102c8610a36565b61039e600480360360e08110156103be57600080fd5b506001600160a01b03813581169160208101359091169060408101359060608101359060ff6080820135169060a08101359060c00135610a3a565b6102c86004803603602081101561040f57600080fd5b50356001600160a01b0316610b7a565b61039e610b95565b6102c86004803603602081101561043d57600080fd5b50356001600160a01b0316610c2c565b6102a4610c47565b610288610c5b565b6102a4610c86565b6101e7610cfc565b61039e6004803603604081101561048357600080fd5b506001600160a01b038135169060200135610d5d565b610288600480360360408110156104af57600080fd5b506001600160a01b038135169060200135610dc6565b610288600480360360408110156104db57600080fd5b506001600160a01b038135169060200135610e34565b61039e6004803603602081101561050757600080fd5b50356001600160a01b0316610f6d565b6102a4611051565b61039e6004803603606081101561053557600080fd5b6001600160a01b038235169160208101359181019060608101604082013564010000000081111561056557600080fd5b82018360208201111561057757600080fd5b8035906020019184600183028401116401000000008311171561059957600080fd5b509092509050611096565b61039e600480360360e08110156105ba57600080fd5b506001600160a01b03813581169160208101359091169060408101359060608101359060ff6080820135169060a08101359060c00135611150565b6102c86004803603604081101561060b57600080fd5b506001600160a01b038135811691602001351661123d565b61039e6004803603602081101561063957600080fd5b50356001600160a01b0316611268565b61039e6004803603602081101561065f57600080fd5b50356001600160a01b03166112bb565b60048054604080516020601f60026000196101006001881615020190951694909404938401819004810282018101909252828152606093909290918301828280156106fb5780601f106106d0576101008083540402835291602001916106fb565b820191906000526020600020905b8154815290600101906020018083116106de57829003601f168201915b5050505050905090565b600061071961071261139f565b84846113a3565b50600192915050565b6007546001600160a01b031681565b60025490565b6000826001600160a01b0381161580159061075b57506001600160a01b0381163014155b6107965760405162461bcd60e51b815260040180806020018281038252605d815260200180611b39605d913960600191505060405180910390fd5b60006107a0610c86565b905060006107ac611051565b6007549091506001600160a01b038481169116148015906107df5750816001600160a01b0316836001600160a01b031614155b80156107f957506008546001600160a01b03848116911614155b80156108175750806001600160a01b0316836001600160a01b031614155b6108525760405162461bcd60e51b8152600401808060200182810382526051815260200180611c046051913960600191505060405180910390fd5b610890873361088b88604051806060016040528060288152602001611cf96028913961087e8d3361123d565b919063ffffffff61148f16565b6113a3565b61089b878787611526565b5060019695505050505050565b6008546001600160a01b031681565b604051806052611c5582396052019050604051809103902081565b60065460ff1690565b60006040518080611ca760529139604080519182900360520182206813595d18505cdcd95d60ba1b83528151928390036009018320603160f81b84529151928390036001019092209192509061092f610a36565b6040805160208082019690965280820194909452606084019290925260808301523060a0808401919091528151808403909101815260c090920190528051910120905090565b600061071961098261139f565b8461088b856001600061099361139f565b6001600160a01b03908116825260208083019390935260409182016000908120918c16815292529020549063ffffffff61168216565b6007546001600160a01b03163314610a28576040805162461bcd60e51b815260206004820152601e60248201527f444c4c523a756e617574686f72697a6564206d41737365742070726f78790000604482015290519081900360640190fd5b610a3282826116e3565b5050565b4690565b856001600160a01b03811615801590610a5c57506001600160a01b0381163014155b610a975760405162461bcd60e51b815260040180806020018281038252605d815260200180611b39605d913960600191505060405180910390fd5b6000610aa1610c86565b90506000610aad611051565b6007549091506001600160a01b03848116911614801590610ae05750816001600160a01b0316836001600160a01b031614155b8015610afa57506008546001600160a01b03848116911614155b8015610b185750806001600160a01b0316836001600160a01b031614155b610b535760405162461bcd60e51b8152600401808060200182810382526051815260200180611c046051913960600191505060405180910390fd5b610b628a338a8a8a8a8a611150565b610b6d8a8a8a610737565b5050505050505050505050565b6001600160a01b031660009081526020819052604090205490565b610b9d610c5b565b610bdc576040805162461bcd60e51b81526020600482018190526024820152600080516020611d21833981519152604482015290519081900360640190fd5b60065460405160009161010090046001600160a01b0316907f8be0079c531659141344cd1fd0a4f28419497f9722a3daafe3b4186f6b6457e0908390a360068054610100600160a81b0319169055565b6001600160a01b031660009081526003602052604090205490565b60065461010090046001600160a01b031690565b60065460009061010090046001600160a01b0316610c7761139f565b6001600160a01b031614905090565b60075460408051635c60da1b60e01b815290516000926001600160a01b031691635c60da1b916004808301926020929190829003018186803b158015610ccb57600080fd5b505afa158015610cdf573d6000803e3d6000fd5b505050506040513d6020811015610cf557600080fd5b5051905090565b60058054604080516020601f60026000196101006001881615020190951694909404938401819004810282018101909252828152606093909290918301828280156106fb5780601f106106d0576101008083540402835291602001916106fb565b6007546001600160a01b03163314610dbc576040805162461bcd60e51b815260206004820152601e60248201527f444c4c523a756e617574686f72697a6564206d41737365742070726f78790000604482015290519081900360640190fd5b610a3282826117d3565b6000610719610dd361139f565b8461088b85604051806060016040528060258152602001611dab6025913960016000610dfd61139f565b6001600160a01b03908116825260208083019390935260409182016000908120918d1681529252902054919063ffffffff61148f16565b6000826001600160a01b03811615801590610e5857506001600160a01b0381163014155b610e935760405162461bcd60e51b815260040180806020018281038252605d815260200180611b39605d913960600191505060405180910390fd5b6000610e9d610c86565b90506000610ea9611051565b6007549091506001600160a01b03848116911614801590610edc5750816001600160a01b0316836001600160a01b031614155b8015610ef657506008546001600160a01b03848116911614155b8015610f145750806001600160a01b0316836001600160a01b031614155b610f4f5760405162461bcd60e51b8152600401808060200182810382526051815260200180611c046051913960600191505060405180910390fd5b610f61610f5a61139f565b8787611526565b50600195945050505050565b610f75610c5b565b610fb4576040805162461bcd60e51b81526020600482018190526024820152600080516020611d21833981519152604482015290519081900360640190fd5b6001600160a01b038116611001576040805162461bcd60e51b815260206004820152600f60248201526e696e76616c6964206164647265737360881b604482015290519081900360640190fd5b600780546001600160a01b0319166001600160a01b0383811691909117918290556040519116907f7c70ee2da4ad50ad78cbff45df2278349dba4af5b382c912e7bc5e07dd7e810190600090a250565b60085460408051635c60da1b60e01b815290516000926001600160a01b031691635c60da1b916004808301926020929190829003018186803b158015610ccb57600080fd5b6110a08484610705565b50604051638f4ffcb160e01b81523360048201818152602483018690523060448401819052608060648501908152608485018690526001600160a01b03891694638f4ffcb1949389939289928992919060a401848480828437600081840152601f19601f8201169050808301925050509650505050505050600060405180830381600087803b15801561113257600080fd5b505af1158015611146573d6000803e3d6000fd5b5050505050505050565b4284101561119e576040805162461bcd60e51b815260206004820152601660248201527513595d18505cdcd95d0e9055551217d156141254915160521b604482015290519081900360640190fd5b60006040518080611c5560529139604080519182900360520182206001600160a01b03808d16600081815260036020908152908590208054600181019091558187019490945285850191909152908c166060850152608084018b905260a084019190915260c08084018a90528251808503909101815260e090930190915281519101209150611232905088828686866118cf565b6111468888886113a3565b6001600160a01b03918216600090815260016020908152604080832093909416825291909152205490565b611270610c5b565b6112af576040805162461bcd60e51b81526020600482018190526024820152600080516020611d21833981519152604482015290519081900360640190fd5b6112b881611a05565b50565b6112c3610c5b565b611302576040805162461bcd60e51b81526020600482018190526024820152600080516020611d21833981519152604482015290519081900360640190fd5b6001600160a01b03811661134f576040805162461bcd60e51b815260206004820152600f60248201526e696e76616c6964206164647265737360881b604482015290519081900360640190fd5b600880546001600160a01b0319166001600160a01b0383811691909117918290556040519116907f5554b3bffdd2afa299cf961d2a6038c24170eea54aa1e62ff09eb7f471a0e7bc90600090a250565b3390565b6001600160a01b0383166113e85760405162461bcd60e51b8152600401808060200182810382526024815260200180611d876024913960400191505060405180910390fd5b6001600160a01b03821661142d5760405162461bcd60e51b8152600401808060200182810382526022815260200180611bbc6022913960400191505060405180910390fd5b6001600160a01b03808416600081815260016020908152604080832094871680845294825291829020859055815185815291517f8c5be1e5ebec7d5bd14f71427d1e84f3dd0314c0f7b2291e5b200ac8c7c3b9259281900390910190a3505050565b6000818484111561151e5760405162461bcd60e51b81526004018080602001828103825283818151815260200191508051906020019080838360005b838110156114e35781810151838201526020016114cb565b50505050905090810190601f1680156115105780820380516001836020036101000a031916815260200191505b509250505060405180910390fd5b505050900390565b6001600160a01b03831661156b5760405162461bcd60e51b8152600401808060200182810382526025815260200180611d626025913960400191505060405180910390fd5b6001600160a01b0382166115b05760405162461bcd60e51b8152600401808060200182810382526023815260200180611af46023913960400191505060405180910390fd5b6115f381604051806060016040528060268152602001611bde602691396001600160a01b038616600090815260208190526040902054919063ffffffff61148f16565b6001600160a01b038085166000908152602081905260408082209390935590841681522054611628908263ffffffff61168216565b6001600160a01b038084166000818152602081815260409182902094909455805185815290519193928716927fddf252ad1be2c89b69c2b068fc378daa952ba7f163c4a11628f55a4df523b3ef92918290030190a3505050565b6000828201838110156116dc576040805162461bcd60e51b815260206004820152601b60248201527f536166654d6174683a206164646974696f6e206f766572666c6f770000000000604482015290519081900360640190fd5b9392505050565b6001600160a01b03821661173e576040805162461bcd60e51b815260206004820152601f60248201527f45524332303a206d696e7420746f20746865207a65726f206164647265737300604482015290519081900360640190fd5b600254611751908263ffffffff61168216565b6002556001600160a01b03821660009081526020819052604090205461177d908263ffffffff61168216565b6001600160a01b0383166000818152602081815260408083209490945583518581529351929391927fddf252ad1be2c89b69c2b068fc378daa952ba7f163c4a11628f55a4df523b3ef9281900390910190a35050565b6001600160a01b0382166118185760405162461bcd60e51b8152600401808060200182810382526021815260200180611d416021913960400191505060405180910390fd5b61185b81604051806060016040528060228152602001611b17602291396001600160a01b038516600090815260208190526040902054919063ffffffff61148f16565b6001600160a01b038316600090815260208190526040902055600254611887908263ffffffff611ab116565b6002556040805182815290516000916001600160a01b038516917fddf252ad1be2c89b69c2b068fc378daa952ba7f163c4a11628f55a4df523b3ef9181900360200190a35050565b60006118d96108db565b85604051602001808061190160f01b81525060020183815260200182815260200192505050604051602081830303815290604052805190602001209050600060018286868660405160008152602001604052604051808581526020018460ff1660ff1681526020018381526020018281526020019450505050506020604051602081039080840390855afa158015611975573d6000803e3d6000fd5b5050604051601f1901519150506001600160a01b038116158015906119ab5750866001600160a01b0316816001600160a01b0316145b6119fc576040805162461bcd60e51b815260206004820152601b60248201527f4d65746141737365743a494e56414c49445f5349474e41545552450000000000604482015290519081900360640190fd5b50505050505050565b6001600160a01b038116611a4a5760405162461bcd60e51b8152600401808060200182810382526026815260200180611b966026913960400191505060405180910390fd5b6006546040516001600160a01b0380841692610100900416907f8be0079c531659141344cd1fd0a4f28419497f9722a3daafe3b4186f6b6457e090600090a3600680546001600160a01b0390921661010002610100600160a81b0319909216919091179055565b60006116dc83836040518060400160405280601e81526020017f536166654d6174683a207375627472616374696f6e206f766572666c6f77000081525061148f56fe45524332303a207472616e7366657220746f20746865207a65726f206164647265737345524332303a206275726e20616d6f756e7420657863656564732062616c616e6365444c4c523a20496e76616c696420616464726573732e2043616e6e6f74207472616e7366657220444c4c52206469726563746c7920746f2074686520444c4c5220636f6e7472616374206f7220746865206e756c6c20616464726573734f776e61626c653a206e6577206f776e657220697320746865207a65726f206164647265737345524332303a20617070726f766520746f20746865207a65726f206164647265737345524332303a207472616e7366657220616d6f756e7420657863656564732062616c616e6365444c4c523a20496e76616c696420616464726573732e2043616e6e6f74207472616e7366657220444c4c52206469726563746c7920746f206120536f7672796e2070726f746f636f6c20616464726573735065726d69742861646472657373206f776e65722c61646472657373207370656e6465722c75696e743235362076616c75652c75696e74323536206e6f6e63652c75696e7432353620646561646c696e6529454950373132446f6d61696e28737472696e67206e616d652c737472696e672076657273696f6e2c75696e7432353620636861696e49642c6164647265737320766572696679696e67436f6e74726163742945524332303a207472616e7366657220616d6f756e74206578636565647320616c6c6f77616e63654f776e61626c653a2063616c6c6572206973206e6f7420746865206f776e657245524332303a206275726e2066726f6d20746865207a65726f206164647265737345524332303a207472616e736665722066726f6d20746865207a65726f206164647265737345524332303a20617070726f76652066726f6d20746865207a65726f206164647265737345524332303a2064656372656173656420616c6c6f77616e63652062656c6f77207a65726fa265627a7a72315820a9967d78416ca3158a75b842946462f93d5a609370d32b4d863e328abe22472064736f6c63430005110032",
  "devdoc": {
    "details": "Implementation of staking Token. Inherits from ERC20 and ERC20Detailed with implemented mint and burn functions.",
    "methods": {
      "allowance(address,address)": {
        "details": "See {IERC20-allowance}."
      },
      "approve(address,uint256)": {
        "details": "See {IERC20-approve}.     * Requirements:     * - `spender` cannot be the zero address."
      },
      "approveAndCall(address,uint256,bytes)": {
        "params": {
          "_amount": "The amount of tokens to be sent.",
          "_data": "Parameters for the contract call, such as endpoint signature.",
          "_spender": "The contract address to spend the tokens."
        }
      },
      "assetImplementation()": {
        "details": "getter function of asset implementation address",
        "return": "asset implementation address"
      },
      "balanceOf(address)": {
        "details": "See {IERC20-balanceOf}."
      },
      "basketManagerImplementation()": {
        "details": "getter function of basket manager implementation address",
        "return": "basket manager implementation address"
      },
      "burn(address,uint256)": {
        "params": {
          "_account": "The recipient address to get the minted tokens.",
          "_amount": "The amount of tokens to be minted."
        }
      },
      "decimals()": {
        "details": "Returns the number of decimals used to get its user representation. For example, if `decimals` equals `2`, a balance of `505` tokens should be displayed to a user as `5,05` (`505 / 10 ** 2`).     * Tokens usually opt for a value of 18, imitating the relationship between Ether and Wei.     * NOTE: This information is only used for _display_ purposes: it in no way affects any of the arithmetic of the contract, including {IERC20-balanceOf} and {IERC20-transfer}."
      },
      "decreaseAllowance(address,uint256)": {
        "details": "Atomically decreases the allowance granted to `spender` by the caller.     * This is an alternative to {approve} that can be used as a mitigation for problems described in {IERC20-approve}.     * Emits an {Approval} event indicating the updated allowance.     * Requirements:     * - `spender` cannot be the zero address. - `spender` must have allowance for the caller of at least `subtractedValue`."
      },
      "increaseAllowance(address,uint256)": {
        "details": "Atomically increases the allowance granted to `spender` by the caller.     * This is an alternative to {approve} that can be used as a mitigation for problems described in {IERC20-approve}.     * Emits an {Approval} event indicating the updated allowance.     * Requirements:     * - `spender` cannot be the zero address."
      },
      "isOwner()": {
        "details": "Returns true if the caller is the current owner."
      },
      "mint(address,uint256)": {
        "params": {
          "_account": "The recipient address to get the minted tokens.",
          "_amount": "The amount of tokens to be minted."
        }
      },
      "name()": {
        "details": "Returns the name of the token."
      },
      "nonces(address)": {
        "details": "See {IERC20Permit-nonces}."
      },
      "owner()": {
        "details": "Returns the address of the current owner."
      },
      "permit(address,address,uint256,uint256,uint8,bytes32,bytes32)": {
        "details": "See {IERC20Permit-permit}."
      },
      "renounceOwnership()": {
        "details": "Leaves the contract without owner. It will not be possible to call `onlyOwner` functions anymore. Can only be called by the current owner.     * NOTE: Renouncing ownership will leave the contract without an owner, thereby removing any functionality that is only available to the owner."
      },
      "setAssetProxy(address)": {
        "params": {
          "_assetProxy": "The address of the mAsset proxy contract"
        }
      },
      "setBasketManagerProxy(address)": {
        "params": {
          "_basketManagerProxy": "The address of the Basket Manager proxy contract"
        }
      },
      "symbol()": {
        "details": "Returns the symbol of the token, usually a shorter version of the name."
      },
      "totalSupply()": {
        "details": "See {IERC20-totalSupply}."
      },
      "transfer(address,uint256)": {
        "params": {
          "_amount": "The amount of token that will be transferred.",
          "_recipient": "Recipient of the token."
        },
        "return": "true / false."
      },
      "transferFrom(address,address,uint256)": {
        "params": {
          "_amount": "The amount of token that will be transferred.",
          "_from": "Sender of the token.",
          "_to": "Recipient of the token."
        },
        "return": "true / false."
      },
      "transferOwnership(address)": {
        "details": "Transfers ownership of the contract to a new account (`newOwner`). Can only be called by the current owner."
      },
      "transferWithPermit(address,address,uint256,uint256,uint8,bytes32,bytes32)": {
        "details": "By calling this function, the allowance will be overwritten by the total amount.",
        "params": {
          "_amount": "The amount of the token that will be transferred.",
          "_deadline": "Expiration time of the signature.",
          "_from": "Sender of the token.",
          "_r": "First 32 bytes of ECDSA signature.",
          "_s": "32 bytes after _r in ECDSA signature.",
          "_to": "Recipient of the token.",
          "_v": "Last 1 byte of ECDSA signature."
        }
      }
    },
    "title": "Token"
  },
  "userdoc": {
    "methods": {
      "approveAndCall(address,uint256,bytes)": {
        "notice": "Approves and then calls the receiving contract. Useful to encapsulate sending tokens to a contract in one call. Solidity has no native way to send tokens to contracts. ERC-20 tokens require approval to be spent by third parties, such as a contract in this case."
      },
      "burn(address,uint256)": {
        "notice": "Burns tokens for the given account.Can be burned only by the mAsset proxy contract."
      },
      "constructor": "Constructor called on deployment, initiates the contract.",
      "mint(address,uint256)": {
        "notice": "Creates new tokens and sends them to the recipient.Can be minted only by the mAsset proxy contract."
      },
      "setAssetProxy(address)": {
        "notice": "setAssetConfig sets the mAsset proxy address"
      },
      "setBasketManagerProxy(address)": {
        "notice": "setBasketManagerConfig sets the Basket Manager proxy address"
      },
      "transfer(address,uint256)": {
        "notice": "Only owner who can transfer the token.destination cannot be: - Zero address. - DDLR contract address. - Sovryn mAsset proxy & implementation address. - Sovryn Basket Manager proxy & implementation address."
      },
      "transferFrom(address,address,uint256)": {
        "notice": "Only owner who can transfer the token.destination cannot be: - Zero address. - DDLR contract address. - Sovryn mAsset proxy & implementation address. - Sovryn Basket Manager proxy & implementation address."
      },
      "transferWithPermit(address,address,uint256,uint256,uint8,bytes32,bytes32)": {
        "notice": "transfer utilizing EIP-2612, to reduce the additional sending transaction for doing the approval to the spender.destination cannot be: - Zero address. - DDLR contract address. - Sovryn mAsset proxy & implementation address. - Sovryn Basket Manager proxy & implementation address."
      }
    }
  },
  "storageLayout": {
    "storage": [
      {
        "astId": 616,
        "contract": "contracts/meta-asset-token/MetaAssetToken.sol:MetaAssetToken",
        "label": "_balances",
        "offset": 0,
        "slot": "0",
        "type": "t_mapping(t_address,t_uint256)"
      },
      {
        "astId": 622,
        "contract": "contracts/meta-asset-token/MetaAssetToken.sol:MetaAssetToken",
        "label": "_allowances",
        "offset": 0,
        "slot": "1",
        "type": "t_mapping(t_address,t_mapping(t_address,t_uint256))"
      },
      {
        "astId": 624,
        "contract": "contracts/meta-asset-token/MetaAssetToken.sol:MetaAssetToken",
        "label": "_totalSupply",
        "offset": 0,
        "slot": "2",
        "type": "t_uint256"
      },
      {
        "astId": 19102,
        "contract": "contracts/meta-asset-token/MetaAssetToken.sol:MetaAssetToken",
        "label": "_nonces",
        "offset": 0,
        "slot": "3",
        "type": "t_mapping(t_address,t_uint256)"
      },
      {
        "astId": 1012,
        "contract": "contracts/meta-asset-token/MetaAssetToken.sol:MetaAssetToken",
        "label": "_name",
        "offset": 0,
        "slot": "4",
        "type": "t_string_storage"
      },
      {
        "astId": 1014,
        "contract": "contracts/meta-asset-token/MetaAssetToken.sol:MetaAssetToken",
        "label": "_symbol",
        "offset": 0,
        "slot": "5",
        "type": "t_string_storage"
      },
      {
        "astId": 1016,
        "contract": "contracts/meta-asset-token/MetaAssetToken.sol:MetaAssetToken",
        "label": "_decimals",
        "offset": 0,
        "slot": "6",
        "type": "t_uint8"
      },
      {
        "astId": 489,
        "contract": "contracts/meta-asset-token/MetaAssetToken.sol:MetaAssetToken",
        "label": "_owner",
        "offset": 1,
        "slot": "6",
        "type": "t_address"
      },
      {
        "astId": 18202,
        "contract": "contracts/meta-asset-token/MetaAssetToken.sol:MetaAssetToken",
        "label": "assetProxy",
        "offset": 0,
        "slot": "7",
        "type": "t_address"
      },
      {
        "astId": 18204,
        "contract": "contracts/meta-asset-token/MetaAssetToken.sol:MetaAssetToken",
        "label": "basketManagerProxy",
        "offset": 0,
        "slot": "8",
        "type": "t_address"
      }
    ],
    "types": {
      "t_address": {
        "encoding": "inplace",
        "label": "address",
        "numberOfBytes": "20"
      },
      "t_mapping(t_address,t_mapping(t_address,t_uint256))": {
        "encoding": "mapping",
        "key": "t_address",
        "label": "mapping(address => mapping(address => uint256))",
        "numberOfBytes": "32",
        "value": "t_mapping(t_address,t_uint256)"
      },
      "t_mapping(t_address,t_uint256)": {
        "encoding": "mapping",
        "key": "t_address",
        "label": "mapping(address => uint256)",
        "numberOfBytes": "32",
        "value": "t_uint256"
      },
      "t_string_storage": {
        "encoding": "bytes",
        "label": "string",
        "numberOfBytes": "32"
      },
      "t_uint256": {
        "encoding": "inplace",
        "label": "uint256",
        "numberOfBytes": "32"
      },
      "t_uint8": {
        "encoding": "inplace",
        "label": "uint8",
        "numberOfBytes": "1"
      }
    }
  }
}